:020000040800F2
:10000000C00A002021030008592C00088928000894
:10001000552C00089D05000899300008330300089E
:10002000000000000000000000000000092F000890
:10003000A1050008000000005D2C00080D2F00083D
:100040003D0300083D0300083D0300083D03000890
:100050003D0300083D0300083D0300083D03000880
:100060003D0300083D0300083D0300083D03000870
:100070003D0300083D0300083D0300083D03000860
:100080003D0300083D0300083D0300083D03000850
:100090003D0300083D0300083D0300083D03000840
:1000A000A50500083D0300083D0300083D030008C6
:1000B0003D0300083D0300083D0300083D03000820
:1000C0003D0300083D0300083D0300083D03000810
:1000D0003D0300083D0300083D0300083D03000800
:1000E0003D0300083D0300083D0300083D030008F0
:1000F0003D0300083D0300083D0300083D030008E0
:100100003D0300083D0300083D0300083D030008CF
:100110003D0300083D0300083D0300083D030008BF
:100120003D0300083D0300083D0300083D030008AF
:100130003D0300083D0300083D0300083D0300089F
:100140003D0300083D0300083D0300083D0300088F
:100150003D0300083D0300083D0300083D0300087F
:100160000000000000000000913000083D0300087E
:100170003D0300083D0300083D0300083D0300085F
:100180003D0300083D0300083D0300080000000097
:10019000000000003D030008000000000000000017
:1001A00000000000000000003D0300083D030008BF
:1001B0003D0300083D0300083D0300083D0300081F
:1001C0003D0300083D03000800000000000000009F
:1001D0000000000000000000000000003D030008D7
:1001E0003D0300083D03000800000000000000007F
:1001F0003D0300083D0300083D0300080000000027
:10020000000000003D0300083D0300083D03000816
:100210003D0300083D0300083D0300083D030008BE
:100220003D03000800000000000000003D0300083E
:100230003D03000800000000000000000000000076
:100240000000000000000000000000003D03000866
:100250003D03000800F002F800F052F814A696E8FA
:10026000000CB244B344DA4501D100F049F8BAE8D1
:100270000F000FA696E83000A5EB040504EB060777
:10028000AAEB0704A7F101074FEA15154FEA34144A
:10029000A4F10104AC4201D300F032F813F0010FD5
:1002A00018BFFB1A43F0010300F001F8DBE7184721
:1002B0003868000058680000103A24BF78C878C138
:1002C000FAD8520724BF30C830C144BF04680C605C
:1002D000704700007047000000230024002500261E
:1002E000103A28BF78C1FBD8520728BF30C148BF99
:1002F0000B6070471FB506F073FB1FBD10B510BD36
:1003000000F012F91146FFF7F5FF03F0E3FF00F0EC
:1003100030F903B4FFF7F2FF03BC00F037F9000037
:100320000A4880470A480047FEE7FEE7FEE7FEE787
:10033000FEE7FEE7FEE7FEE7FEE7FEE7FEE700007A
:1003400004480549054A064B70470000E12F0008A4
:1003500055020008C0040020C00A0020C00600208A
:10036000C006002010B5431C02E010F8011B71B15B
:100370008107FAD14FF0013202C88C1A8C4314EA7B
:10038000C211F9D0C01A0A0603D0C01E10BDC01A8F
:1003900010BD0A0401D0801E10BD0902FCD0401E11
:1003A00010BD032A40F2308010F0030C00F01580DD
:1003B00011F8013BBCF1020F624498BF11F801CB68
:1003C00000F8013B38BF11F8013BA2F1040298BFCD
:1003D00000F801CB38BF00F8013B11F0030300F037
:1003E0007180083AC0F0088051F8043B083A51F88F
:1003F00004CBA0E80810F5E7121D5CBF51F8043BE0
:1004000040F8043BAFF30080D20724BF11F8013B52
:1004100011F801CB48BF11F8012B24BF00F8013BB4
:1004200000F801CB48BF00F8012B70474FF00002E5
:100430000429C0F0128010F0030C00F01B80CCF1F6
:10044000040CBCF1020F18BF00F8012BA8BF20F864
:10045000022BA1EB0C0100F00DB85FEAC17C24BFB8
:1004600000F8012B00F8012B48BF00F8012B704762
:100470004FF0000200B5134694469646203922BF3D
:10048000A0E80C50A0E80C50B1F12001BFF4F7AF88
:10049000090728BFA0E80C5048BF0CC05DF804EB6A
:1004A000890028BF40F8042B08BF704748BF20F8D8
:1004B000022B11F0804F18BF00F8012B70477047D6
:1004C0007047704710B5203AC0F00B80B1E8185063
:1004D000A0E81850B1E81850A0E81850203ABFF42E
:1004E000F5AF5FEA027C24BFB1E81850A0E81850CD
:1004F00044BF18C918C0BDE810405FEA827C24BF21
:1005000051F8043B40F8043B08BF7047D20728BFAE
:1005100031F8023B48BF11F8012B28BF20F8023BFD
:1005200048BF00F8012B7047754600F02BF8AE4627
:1005300005006946534620F00700854618B020B5EF
:10054000FFF7FEFEBDE820404FF000064FF0000729
:100550004FF000084FF0000BAC46ACE8C009ACE827
:10056000C009ACE8C009ACE8C00921F007018D461C
:10057000704710B50446AFF300802046BDE8104038
:10058000FFF7C7BE00487047480000200149182007
:10059000ABBEFEE72600020070470000FEE7000049
:1005A000704700004FF4005000F01AB872B600BF58
:1005B000FEE70000B0B5044600F0F6F8054640F24C
:1005C0000000C2F200000078611C18BF044400BFA4
:1005D00000F0EAF8401BA042FAD3B0BD704700001B
:1005E000B0B542F20C05C4F2024529680446014246
:1005F00003D020462C6000F00BF86868204208BF4A
:10060000B0BD20466C60BDE8B040FFF7E7BF00001A
:10061000704700000A68002A08BF70472DE9F04FB4
:1006200083B000F12003019347F67F73C0F22F03DC
:1006300003EA90234FF0000A4FF0010B00274FF020
:10064000000C002500930BE00A68013532FA05F32F
:100650000CF1040C07F102070AF1080A00F09A8075
:100660000BFA05F912EA0902EED0D1F804800292E1
:1006700048F01006122E1BD16FF0030202EA550655
:10068000DDF804B00CF01C025BF80640D1F81080D5
:100690000F2303FA02FE08F00F0324EA0E0403FA04
:1006A00002F222434BF80620D1F804804FF0010BF0
:1006B00002680323BB4008F0030EDC439A430EFAA2
:1006C00007F31A43B8F1120F02605BD80BFA08F275
:1006D00012F0061F56D08368D1E902262340BE409F
:1006E0003343836043684FEA181623EA0903AE4098
:1006F00033434360C368BA4023401A43C260029C3C
:100700005FEAC802A0D542F2000E25F00302C4F24F
:10071000024E7244D2F860800AF018060F23B340EC
:1007200028EA0308009B03FA06F648EA0603136664
:10073000DEF800804B6848EA0406DA0258BF28EA6F
:100740000406CEF80060DEF804809A0248EA040647
:1007500058BF28EA0406CEF80460DEF884809A03C5
:1007600048EA040658BF28EA0406CEF88460DEF89A
:100770008020DB0342EA040658BF22EA0406CEF8D2
:10078000806061E78A68BEF1030F08BF012AB1D11A
:10079000B5E700BF03B0BDE8F04F70471823002A4B
:1007A00008BF2823C150704740F2BC30C2F200009D
:1007B0000068704740F2000040F2BC31C2F2000015
:1007C000C2F2000100780A68104408607047000017
:1007D00080B5032000F0B6F800F048FF40F6204155
:1007E000C4F20241096846F6FC1201F00F01C0F69E
:1007F0000002515CC84040F22001C2F200010860D2
:10080000042001F0DBFF0F2000F008F800281CBFD7
:10081000012080BD00F056F8002080BDB0B540F248
:100820000005C2F200052978E1B304464EF210003B
:10083000CEF200000068400710D402F00DF8022844
:1008400024D001281AD078BB40F22000C2F2000068
:10085000006829784FF4FA5207E000BF40F2200008
:10086000C2F2000000684FF47A72B2FBF1F1B0FB03
:10087000F1F001F0DFFFA8B91BE000BF28784FF4CA
:100880007A71B1FBF0F04FF4FA4106E028784FF4AA
:100890007A71B1FBF0F04FF40041B1FBF0F001F0E0
:1008A000C9FF30B10120B0BD002001F0C3FF002816
:1008B000F8D14FF0FF302146002200F017F8002059
:1008C0006C60B0BD70470000002848BF704700F062
:1008D0001F010122C0F34A1002FA01F14EF2001288
:1008E000CEF2000242F820107047000010B54EF61C
:1008F0000C5CCEF2000CDCF80030C3F3022E8EF05C
:100900000704042C28BF0424BEF103034FF0FF3E6C
:1009100038BF00230EFA04F4A14399400EFA03F302
:100920009A43114300F00F0200F160430901043AB9
:1009300003F564436244002848BF02F10C031970B8
:1009400010BD00004EF60C51CEF200010A684FF6C1
:10095000FF031A4060F30A2242F0806040F0FD700D
:100960000860704740F63800C4F20240016841F068
:10097000007101607047000040F67441C4F202410A
:100980000A6842F080720A600A6822F080720A6087
:1009900090E80E1011431943026941EA0C0141EA43
:1009A000024146F20002C4F200025160116840693F
:1009B00021F47C5141EA00201060106840F0600092
:1009C000106070472DE9F0470446006840F628485B
:1009D000C101C4F2024807D5D8F8C010A26D21F0B9
:1009E00040411143C8F8C010C00712D0E06D05287F
:1009F00000F25482DFE810F00600B404EA010600B9
:100A000006000600D8F8B01021F007010843C8F826
:100A1000B00000252078800702D428461BE000BFE4
:100A2000206E4FEAF001052900F23A822846DFE8FD
:100A300011F00700A304D70107000700070000BF5B
:100A4000064648B9D8F8B000216E20F038000843B7
:100A5000C8F8B00000202E462178490719D5616EEC
:100A60004FEAB111052900F22382DFE811F00700F7
:100A70008B04BF0107000700070000BF054648B907
:100A8000D8F8B000616E20F4E0700843C8F8B000F8
:100A9000002035462178090719D5A16E4FEA71214A
:100AA000052900F20D82DFE811F007007304A701A9
:100AB00007000700070000BF064648B9D8F8B00095
:100AC000A16E20F460600843C8F8B00000202E46F4
:100AD0002178C90619D5E16E4FEA3131052900F2B6
:100AE000F781DFE811F007005B048F0107000700C2
:100AF000070000BF054648B9D8F8B000E16E20F401
:100B0000E0400843C8F8B000002035462178890647
:100B100019D5216F4FEAF131052900F2E181DFE8B3
:100B200011F007004304770107000700070000BF2A
:100B3000064648B9D8F8B000216F20F46030084369
:100B4000C8F8B00000202E466178C90619D5616F3B
:100B50004FEA3161052900F2CB81DFE811F007008F
:100B60002B045F0107000700070000BF054648B9D6
:100B7000D8F8B800616F20F0E0600843C8F8B8000A
:100B800000203546617889061AD5A16F6FF0010201
:100B900002EB3142022A08D34FEA314129B101293F
:100BA0002ED104F1300002F0D1F8064648B9D8F849
:100BB000BC00A16F20F440300843C8F8BC000020FE
:100BC0002E466178490620D5E16F6FF0010202EBF5
:100BD000B142022A08D34FEAB14129B1012937D1E4
:100BE00004F1300002F0B2F8054678B9D8F8BC003C
:100BF000E16F20F440200843C8F8BC00002004E066
:100C00000120012661784906DED43546617809065F
:100C100023D5D4F880106FF0010202EB3152022A82
:100C200008D34FEA315129B1012939D104F13000FB
:100C300002F08CF8064688B9D8F8BC00D4F88010C9
:100C400020F440100843C8F8BC00002005E000BFB5
:100C50000120012561780906DBD42E46A178C90759
:100C600023D0D4F88410002918BFB1F1007F0DD132
:100C70000746D8B9D8F8BC00D4F8841020F04070EA
:100C80000843C8F8BC0000200FE000BFB1F1807F2E
:100C900030D104F1300002F059F8074630B9E9E7E5
:100CA00001200126A178C907DBD137466179C90641
:100CB00025D5D4F88810002918BFB1F1006F0DD1E7
:100CC0000546E8B9D8F8BC00D4F8881020F0406098
:100CD0000843C8F8BC00002011E000BFB1F1806FEC
:100CE00040F0708004F1300002F030F8054638B969
:100CF000E8E700BF012001276179C906D9D43D4644
:100D0000D4E9001240F61C47C4F20247120508D588
:100D10003A6822F400423A60D4F8C8203B681A438B
:100D20003A6089031AD5D4F88C104FEA312105298D
:100D300000F2E680DFE811F00600440378000600C8
:100D400006000600064650B9D8F8B400D4F88C1056
:100D500020F4E0600843C8F8B40000202E46A178D3
:100D600049071BD5D4F890104FEA3131052900F21C
:100D7000CF80DFE811F007002B035F0007000700BA
:100D8000070000BF054650B9D8F8B400D4F8901059
:100D900020F4E0400843C8F8B40000203546A178AC
:100DA00089065ED5D4F8A010052900F2B980022981
:100DB00046D0002802464AD0D4E900139B0555D4FA
:100DC000B4E000BF012001259AE700BF04F1300024
:100DD00001F0BCFF054600287FF41CAEC8E200BF4E
:100DE00004F1300001F0B2FF2AE600BF04F1300048
:100DF00001F0ACFF42E600BF04F1300001F0A6FFB5
:100E00005AE600BF04F1300001F0A0FF72E600BF17
:100E100004F1300001F09AFF8AE600BF04F13000CF
:100E200001F094FFA2E600BF04F1300001F08EFF54
:100E300088E700BF04F1300001F088FFA2E700BF9F
:100E400004F1080001F00CFF00280246B4D1D8F8E4
:100E5000C000D4F8A01020F007000843C8F8C00074
:100E600000202A46D4E900139B055FD5D4F8A430AE
:100E700043F00806082E0BD1814660B9D8F8C000AF
:100E800020F008001843C8F8C00000204EE000BF62
:100E900001204FF0010989014BD4A6E00125B9E5F5
:100EA00001200126217849073FF5D9ADF1E500BFC2
:100EB00001200125217809073FF5EFAD07E600BFC6
:100EC000012001262178C9063FF505AE1DE600BFC9
:100ED00001200125217889063FF51BAE33E600BFCE
:100EE000012001266178C9063FF531AE49E600BF11
:100EF00001200125617889063FF547AE60E600BF15
:100F000001200126A17849073FF52CAF46E700BF35
:100F100001200125A17889063FF544AFA1E700BF74
:100F200001200122D4E900139B059FD49146890139
:100F30005BD54FF60846CFF6FF768246B85940F0AB
:100F40000100B851FFF730FC054600BFB859C00793
:100F500008D1FFF729FC401B0228F7D90320032101
:100F600044E000BF5046BAF1000F51463ED1D8F8D8
:100F7000C80010F4407018D0D4F8BC10884211D0CA
:100F8000D8F8C800D8F8C81020F4407041F4803177
:100F9000C8F8C810D8F8C81021F48031C8F8C810B3
:100FA000C8F8C800C00740F01D82D4F8BC003968FA
:100FB0004FF6CF7300F4407221F47C51C0F2FF036E
:100FC00003EA1013B2F5407F08BF19433960D8F81F
:100FD000C8106FF31F3021F44071C8F8C810D8F85A
:100FE000C8100843C8F8C8000020494622685301C9
:100FF0001CD5D4F898306FF0010707EB3317022F98
:101000000AD34FEA33173FB1012F17D1D8F8007038
:1010100047F40037C8F80070054640B9D8F8C0005A
:1010200020F030001843C8F8C00000200D465102DF
:1010300008D42E46E178090714D451E00120012597
:101040005102F6D5D4F89C10402921D091BBD8F894
:10105000001041F40031C8F800100646F8B1E178FC
:1010600009073DD5D4F8AC10042900F25F81DFE810
:1010700011F005003F0127002B002B00D8F80010CD
:1010800041F40031C8F80010054650BB1EE000BF17
:1010900004F1080001F0E4FD00280646DFD1D8F88D
:1010A000BC00D4F89C1020F040000843C8F8BC00F5
:1010B0000020BEE701200126E1780907D2D40FE025
:1010C00004F1300001F042FE054650B9D8F8B800EE
:1010D000D4F8AC1020F007000843C8F8B80000208E
:1010E0003546E178C90627D5D4F8B0104FEAF101AA
:1010F000042900F21F81DFE811F0050005010F004F
:1011000013001300D8F8001041F40031C8F80010A3
:10111000064690B906E000BF04F1300001F016FE6B
:10112000064650B9D8F8B800D4F8B01020F038000E
:101130000843C8F8B80000202E46E178890627D574
:10114000D4F8B4104FEAB111042900F2F780DFE8B7
:1011500011F00500E3000F0013001300D8F8001091
:1011600041F40031C8F80010054690B906E000BF10
:1011700004F1300001F0EAFD054650B9D8F8B80096
:10118000D4F8B41020F4E0700843C8F8B800002088
:101190003546E17849061BD5D4F8B8104FEA7121DD
:1011A000052900F2D580DFE811F007001701CD0016
:1011B00007000700070000BF064650B9D8F8B8007E
:1011C000D4F8B81020F460600843C8F8B8000020D4
:1011D0002E46217989071BD5D4F8A810032900F2DF
:1011E0008380DFE801F00903770900BFD8F8001019
:1011F00041F40031C8F80010054650B9D8F8BC00D9
:10120000D4F8A81020F003000843C8F8BC00002060
:1012100035462179490721D5D4F8941059B1B1F553
:10122000007F0BD0B1F5807F3CD1D8F8001041F49D
:101230000031C8F80010064688B905E004F108003E
:1012400001F00EFD064650B9D8F8C000D4F894104D
:1012500020F440700843C8F8C00000202E462179D1
:10126000C90624D5D4F8C410302909D0202909D0C2
:1012700010292DD1D8F8001041F40031C8F8001021
:10128000B0B904E004F1300001F060FD80B9D8F895
:10129000BC00D4F8C41020F030000843C8F8BC00EB
:1012A00005E000BF012001262179C906DAD43046C5
:1012B0002179090758BFBDE8F087D8F8C010D4F8E5
:1012C000C02021F0C0011143C8F8C010BDE8F0876C
:1012D0000120EDE704F1080001F0C2FC00280546FA
:1012E0007FF497AF8AE700BF0120012591E700BF97
:1012F00004F1080001F0B4FC002805467FF4F1AECB
:10130000E4E600BF04F1080001F0AAFC002806464C
:101310007FF413AF06E700BF04F1080001F0A0FC62
:10132000002805467FF435AF28E700BF01200125DE
:10133000D7E600BF01200126FFE600BF01200125FE
:1013400027E700BF04F1300001F000FD34E700BFE3
:1013500001200126217989073FF53EAF58E700BFFC
:1013600004F1080001F07CFC054600287FF452AB34
:10137000E06DFFF747BB00BF04F1080001F070FC0F
:10138000FFF75EBB04F1080001F06AFCFFF776BBD3
:1013900004F1080001F064FCFFF78EBB04F10800C3
:1013A00001F05EFCFFF7A6BB04F1080001F058FC59
:1013B000FFF7BEBB04F1080001F052FCFFF7D6BBFB
:1013C00004F1080001F04CFCFFF7BCBC04F108007C
:1013D00001F046FCD6E400BF04F1080001F040FC37
:1013E000EAE600BFFFF7E0F9054641F2883600BFA4
:1013F000D8F8C80080073FF5D8ADFFF7D5F9411BF5
:101400000320B1424FF00301F2D9EFE52DE9F0439B
:1014100081B0002800F0D08042F20008C4F2020837
:101420000446D8F800000D4600F00F0088420DD2A7
:10143000D8F8000020F00F002843C8F80000D8F8C2
:10144000000000F00F00A84240F0B680206840F68F
:101450002047C106C4F202470CD561693A6870237F
:1014600003EA1222914205D93A6822F4E04242EAA4
:101470000121396001070CD521693A68702303EA1C
:101480001212914205D93A6822F4E06242EA01114F
:10149000396041070AD5E1683A6802F0700291426A
:1014A00004D93A6822F070021143396081070AD5E5
:1014B000A1683A6802F00F02914204D93A6822F01A
:1014C0000F0211433960C00768D1206881070AD52F
:1014D000A1683A6802F00F02914204D23A6822F001
:1014E0000F0211433960D8F8001001F00F01A94232
:1014F0000CD9D8F8001021F00F012943C8F80010CA
:10150000D8F8001001F00F01A94255D141070AD5C2
:10151000E1683A6802F07002914204D23A6822F01F
:1015200070021143396001070CD521693A687023B4
:1015300003EA1212914205D23A6822F4E06242EACA
:1015400001113960C0060CD560693968702202EA61
:101550001121884205D2396821F4E04141EA002096
:10156000386000F083F8396846F6FC1201F00F018C
:10157000C0F60002525C40F20401C2F200010968A8
:1015800040F2200320FA02F2C2F2000308461A6079
:1015900001B0BDE8F043FFF741B900BF606857F8FC
:1015A000201C01280CD0022804D003285AD189011C
:1015B00002D507E0890305D4012001B0BDE8F0831E
:1015C0008905F9D557F8041C21F00301084347F8B1
:1015D000040CFFF7E9F861680646032941F28839EF
:1015E00039D0022929D0012910D100BF57F8040CA5
:1015F00000F0180008283FF468AFFFF7D5F8801B0B
:1016000048454FF00300F1D90DE000BF57F8040C36
:1016100010F0180F3FF459AFFFF7C6F8801B48458C
:101620004FF00300F2D901B0BDE8F083FFF7BCF83A
:10163000801B48454FF00300F5D857F8040C00F024
:1016400018001028F2D140E7FFF7AEF8801B48459C
:101650004FF00300E7D857F8040C00F018001828E2
:10166000F2D132E78907A7D5ACE7000080B540F694
:101670000041C4F20241C86900F01800082802BF06
:1016800040F60010C0F23D0080BDC86910F0180F90
:1016900034D0C86900F01800102802BF47F6400097
:1016A000C0F27D1080BDC86900F01800182849F20A
:1016B0000000C0F2D03066D1D1F828E08A6AC2F3C7
:1016C000052C8A6A8B6BBCF1000F04BF002080BD23
:1016D000DB08D20603EAE2726FF35F3200EE102AF3
:1016E0000EF00302B8EE400A032A15D0012A17D1E2
:1016F0000A68920618D49FED251A1DE00868800636
:1017000049F20000C0F2D03058BF80BD0968C1F373
:10171000C101C84080BD00BF9FED1B1A0CE000BF97
:101720009FED1B1A08E000BF0A68C2F3C102D04057
:1017300001EE100AB8EE411A02EE10CA486BB8EE7C
:10174000422A6FF35F2081EE021A02EE100A9FED2B
:10175000113AB8EE422A20EE030A486B30EE020A34
:10176000B7EE002AC0F3462030EE020A013021EE27
:10177000000A01EE100AB8EE411A80EE010ABCEE32
:10178000C00A10EE100A80BD20BCBE4B0024744C71
:101790000024744A00000039002804BF012070476B
:1017A0002DE9F04381B040F6004740F6F049044689
:1017B000C4F20247C4F20249F86959F8C81C2278F9
:1017C00000F01808D00601F003062AD5B8F1080F7A
:1017D0001CD0B8F1180F08BF022E17D0E169386885
:1017E000002900F06D8140F480703860FEF7DCFF66
:1017F000054600BF386880050CD4FEF7D5FF401BB6
:1018000002284FF00300F5D958E200BFE069002834
:1018100000F0E480B869216A20F47C1040EA0140BD
:10182000B8612078C00719D0B8F1100F12D0B8F104
:10183000180F08BF032E0DD061683868B1F5A02FCE
:1018400060DA002900F0B081B1F5803F00F0CE8170
:101850009EE100BF6068002800F0C080207880070B
:1018600077D5B8F1000F21D0E068B8F1180F08BFA4
:10187000012E55D03968002800F06681206921F0DA
:10188000180108433860386840F001003860FEF7FE
:101890008BFF05463868800754D4FEF785FF401B50
:1018A00002284FF00300F5D908E200BFE0680028E5
:1018B00000F094803968206901F01801814231D02C
:1018C000396821F0180108433860FFF7CFFE396A04
:1018D00046F6FC1201F00F01C0F60002515C40F226
:1018E000200201F01F0120FA01F140F20400C2F2CF
:1018F00000000068C2F200021160FEF78FFF0028AE
:101900006CD10FE000F06A81B1F5A81F40F0408172
:1019100040F480203860386840F4801064E100BFF3
:1019200000285BD0FEF740FF054600BF38688007FF
:1019300008D4FEF739FF401B0228F7D9032001B075
:10194000BDE8F0833869616920F4FE0040EA014097
:1019500038612078000745D4207840075CD420788F
:10196000800600F17F80A56AA5B3B8F1180F40F09A
:10197000C98059F8C81C59F8BC0C012D2ED0E26A58
:1019800001F00303934229D1C1F30521226B914257
:1019900024D1626B01466FF35F21013A91421DD160
:1019A000A16BC0F3462201398A4217D1E16BC0F323
:1019B000064201398A4211D1216CC0F30660013917
:1019C00088420BD159F8B80CE16CC0F3CC008842C6
:1019D00040F0E881002001B0BDE8F083012001B0B3
:1019E000BDE8F083A169D9F80000002952D040F089
:1019F0008060C9F80000FEF7D7FE0546D9F8000060
:101A00000001A9D4FEF7D0FE401B0228F6D903201E
:101A100001B0BDE8F08300BF4FF62446CFF6FF7655
:101A2000B859C00712D1B85940F00100B851FEF7BB
:101A3000BBFE0546B859C00708D1FEF7B5FE401BEE
:101A400002284FF00300F5D938E100BFA168D9F8AA
:101A50000000042946DC002900F0EA80012900F09A
:101A60001781D5E0616A3868002900F07F8040F472
:101A700080503860FEF798FE054600BF3868800445
:101A80003FF571AFFEF790FE401B02284FF00300B8
:101A9000F4D913E120F08060C9F80000FEF784FE5D
:101AA000054600BFD9F8000000017FF555AFFEF7ED
:101AB0007BFE401B02284FF00300F3D9FEE000BF7D
:101AC00020F480703860FEF76FFE054638688005A8
:101AD0007FF5A7AEFEF768FE401B02284FF003001B
:101AE000F4D9EBE0052900F0C780852940F090800B
:101AF00040F00400C9F80000D9F8000040F0800070
:101B0000C2E000BF386820F080703860FEF74CFEFD
:101B1000022D05460CD100BF3868800140F1D2800B
:101B2000FEF742FE401B02284FF00300F4D9C5E047
:101B30003868800140F12881FEF736FE401B0228FC
:101B40004FF00300F4D9B9E021F001003860FEF74E
:101B50002BFE0546386880077FF5FBAEFEF724FEB6
:101B6000401B02284FF00300F4D9A7E020F4805076
:101B70003860FEF719FE0546386880047FF5F3AE3D
:101B8000FEF712FE401B02284FF00300F4D995E047
:101B900020F480303860386820F48020386038685D
:101BA00020F4801024E000BF20F4803038603868D2
:101BB00020F480103860386820F480203860FEF708
:101BC000F3FD0546386880037FF548AEFEF7ECFD6F
:101BD000401B64284FF00300F4D96FE040F48020EC
:101BE0003860386820F480103860386840F48030FD
:101BF0003860FEF7D9FD0546386880033FF52EAE04
:101C0000FEF7D2FD401B64284FF00300F4D955E0E5
:101C100020F00100C9F80000D9F8000020F004000D
:101C2000C9F80000D9F8000020F0800032E000BFC1
:101C300020F00100C9F80000D9F8000020F0800071
:101C4000C9F80000D9F8000020F00400C9F800002D
:101C5000FEF7AAFD054641F2883600BFD9F800001C
:101C600080077FF57CAEFEF79FFD401BB0424FF032
:101C70000300F3D922E000BF40F00400C9F80000DF
:101C8000D9F8000020F08000C9F80000D9F8000061
:101C900040F00100C9F80000FEF786FD054641F25C
:101CA000883600BFD9F8000080073FF558AEFEF730
:101CB0007BFD401BB0424FF00300F3D901B0BDE8FB
:101CC000F08300BF59F8C80C43F6037104F12C03EC
:101CD00088430ECB084340EA0220A16B49F8C80CA8
:101CE0004FF47E4202EB4121E26B581E4FF4FE039B
:101CF00089B203EB02426FF35F20084402F4FE0155
:101D0000226C4FF0FE4303EB0262084402F0FE41F6
:101D1000084449F8BC0C59F8C80C20F0100049F8E8
:101D2000C80CE06CC00049F8B80C59F8C80C40F079
:101D3000100049F8C80C59F8C80C616C20F00C0070
:101D4000084349F8C80C59F8C80CA16C20F02000D1
:101D5000084349F8C80C59F8C80C40F4803049F8D9
:101D6000C80C386840F080703860FEF71DFD0446EE
:101D7000386880013FF52EAEFEF716FD001B0228E5
:101D80004FF00300F4D999E759F8C80C4FF6FC71ED
:101D9000CFF6F871084049F8C80C002001B0BDE842
:101DA000F08300BF59F8C80C20F0100049F8C80CA7
:101DB000FEF7FAFC0546FEF7F7FCA842FBD0E06C04
:101DC000C00049F8B80C59F8C80C40F0100049F8A8
:101DD000C80C002001B0BDE8F0830000002804BF5B
:101DE000012070472DE9F04381B0016844F60044BA
:101DF00041F08053C5F201040022A342826203D164
:101E0000C2680F2A01D949E0C268C36B012404EB00
:101E100053130832D20803FB02F244F60043C4F223
:101E2000010399420AD043F60043C5F2000303F5CB
:101E30008833994204D1082A30D801E0082A2DD8E5
:101E400042F6FF73C4F20103994213DD43F200032B
:101E5000C4F2010399421FD043F60003C5F2000308
:101E6000994219D043F20003C5F20103994213D0FD
:101E70000CE000BF43F60003C4F2000399420BD00C
:101E800043F60043C4F20003994205D043F60043F1
:101E9000C5F20003994205D1102A03D9012001B0EF
:101EA000BDE8F08390F8891031B9002180F88810DE
:101EB000044600F085F82046022180F88910D0E918
:101EC0000019D0F818800C68B8F1806F24F0010474
:101ED0000C608C6804F4F81C10D1B9F1000F05D027
:101EE000B9F5800F0AD1846B74B903E0846BB4F147
:101EF000805F06D10C6844F480540C605FEA49248A
:101F000002D44FF0010E0FE0C468072C0AD3D1F8B9
:101F100000E0066D2EF480752E430E604FF0000E2B
:101F200007E000BF4FF0000E0C6824F480740C60D2
:101F3000C468C669876AC36B46EA0C0637433B43ED
:101F400023438568D0E904628B60D0E90D34476A89
:101F5000BEF1000F43EA070343EA0403D0E9124746
:101F600043EA0603066A42EA030242EA060242EA3A
:101F7000070242EA0502836D42EA0402C76D42EAA3
:101F80000302036E42EA070242EA030242EA08023F
:101F900042EA0902CA600A6D22F001020A6505D10F
:101FA000CA68436D22F000421A43CA600021C0F89B
:101FB0008C10012180F88910002001B0BDE8F08369
:101FC000B0B5BCB0044602A800250830C8213B9536
:101FD000CDE93955CDE93755FEF74AFA206843F285
:101FE0000001C4F20101884202D03CB0B0BD00BF84
:101FF0004FF00060029002A80395FEF7E3FC002872
:1020000018BFFEF7D3FA40F68C40C4F20240816953
:1020100041F480518161816901F4805101910199FC
:10202000016841F001010160006837A900F001007A
:1020300001900198E0203790022038900020CDE9EF
:10204000390005203B900020C4F20220FEF7E2FA9E
:102050003CB0B0BD2DE9F047D0F800901D461746C2
:1020600004460E46FEF7A0FB94F8891001290DD115
:102070008046002E4FF0010018BF002F02D1BDE8AE
:10208000F08700BF94F88800012803D10220BDE842
:10209000F08700BF01210320002284F8881084F813
:1020A0008900C4F88C206666A4F86870A4F86A7089
:1020B000E266A4F87020A4F87220A068A267B0F5C8
:1020C000C02F2068E26705D1016841F4006101601A
:1020D00004E000BFC26861F35242C26041684FF63B
:1020E000FF72914339444160016841F00101016090
:1020F0006168B1F5800F03D1016841F4007101609E
:10210000E168102916D343F2FF71C5F2000188423D
:102110005CDC43F60001C4F20001884268D043F65B
:102120000041C4F20001884262D043F20001C4F2CF
:1021300001015BE0072900F2A780B4F86A000028DB
:1021400000F0D4804FF6FE706E1CA0F1020A471C0E
:1021500010E000BF616E51F8042B026250466166C8
:10216000B4F86A100844A4F86A00B4F86A000028B9
:1021700000F0BC8020684169890709D4FEF714FB90
:10218000002EF2D0A0EB0800A842EED350E000BF32
:10219000B4F86A10042902D3E16B4129DAD2B4F809
:1021A0006A1001290AD9E26B616E42B131F8020B63
:1021B000A9F820004FF6FE70D1E700BF616E0978E4
:1021C00080F82010606E411C3846C8E743F60001D5
:1021D000C5F2000188420BD043F20001C5F20101B3
:1021E000884205D043F60041C5F2000188424BD138
:1021F000B4F86A00002879D0681C0FD130E000BF25
:10220000616E51F8042B02626166B4F86A0001380D
:10221000A4F86A00B4F86A00002867D02068416911
:102220008907EDD4FEF7C0FAA0EB0800A842F1D36D
:10223000204600F001FED4F88C0040F48070C4F811
:102240008C00012084F88900002084F88800032095
:10225000BDE8F087FEF7A8FAB4F86A00002845D078
:10226000206841698907F5D5616E51F8042B026237
:102270006166B4F86A000138A4F86A00B4F86A002C
:102280000028EDD132E000BFB4F86A0070B34FF619
:10229000FE706E1C471C0EE0606E30F8021BA9F841
:1022A000201039466066B4F86A000844A4F86A0051
:1022B000B4F86A00D0B121684869800708D4FEF7F5
:1022C00073FA002EF4D0A0EB0800A842F0D3AFE7D9
:1022D000B4F86A000128DFD9E26B606E002ADCD016
:1022E00050F8042B0A624FF6FE71DBE7681C13D02E
:1022F00020684069000713D4FEF756FAA0EB0800E7
:10230000A842F5D3D4F88C0040F02000C4F88C002B
:1023100006E000BFFEF748FA206840690007F9D5DB
:10232000204600F089FD012084F88900002084F80F
:102330008800D4F88C00002818BF0120BDE8F08781
:102340002DE9F04F81B0D0F80090C66B9A46174641
:1023500004460D46FEF728FA94F8891001290FD19A
:1023600080464FF0010025B1002F18BFBAF1000FD1
:1023700002D101B0BDE8F08F94F88800012803D1A4
:10238000022001B0BDE8F08F012084F8880005200C
:10239000002184F88900C4F88C10E766A4F872A0C4
:1023A000A4F870A06566A4F86AA02068A4F868A0E4
:1023B000A167E167C168102721F4C021C16043F221
:1023C000FF71C5F20001884210DC43F60002C4F23E
:1023D000000290421DD043F60042C4F20002904237
:1023E00017D043F20002C4F201020FE043F60002EC
:1023F000C5F2000290420CD043F60042C5F2000242
:10240000904206D043F20002C5F20102904218BF8A
:10241000082742684FF6FF739A43524442600268AD
:1024200042F0010202606268B2F5800F4FF00102D3
:1024300003D1036843F400730360E36802EB5612B0
:10244000102B17D3884200F39D8043F60001C4F29D
:1024500000010A9B884200F0A88043F60041C4F2C4
:102460000001884200F0A18043F20001C4F20101A2
:1024700099E000BF072B0A9B00F200814FF6FF7125
:102480001FFA82F9012003F1010BA1F1030C0123D2
:1024900056460FE04FF0000AB3B21FFA8AF0002B45
:1024A00018BF012346EA0A01002818BF01200904C9
:1024B00000F0568121681FFA8AF2DB074D6918BFC8
:1024C00015F0020312D0B3B23B4493420ED9636EAF
:1024D0001B7881F82030636E216801336366B4F89D
:1024E0006A30013BA4F86A30B4F86A604B69C007EF
:1024F000D0D04869C00724D14A451DD213F400400A
:102500001AD091F83000E16E0870E06E2168421C2C
:10251000E26691F830104170E06E2168421CE2667C
:1025200091F830104170E06E2168421CE26691F82B
:102530003010417060460AE0032A13D813F4C040FB
:1025400010D091F83000E16E08704FF6FF70E16E28
:102550000131E166B4F872100844A4F87200B4F8CE
:1025600072A099E76546FEF71FF9BBF1000F07D08F
:102570000A99A0EB08008842AC46FFF48DAF69E0F1
:10258000AC4689E743F60001C5F200010A9B884288
:102590000BD043F20001C5F20101884205D043F699
:1025A0000041C5F20001884268D11FFA82FBBD08D4
:1025B000012003F10109012356460FE04FF0000A04
:1025C000B3B21FFA8AF0002B18BF012346EA0A01B2
:1025D000002818BF0120090400F0C28021681FFAFA
:1025E0008AF2DB074F6918BF17F002030FD0B3B2AE
:1025F0002B4493420BD9636E53F8047B0F626366DE
:10260000B4F86A30013BA4F86A30B4F86A604B69E8
:10261000C007D3D04869C00704D15A4510D213F47B
:1026200000400DD0096BE06E01600430E066B4F844
:1026300072000138A4F87200B4F872A0C0E700BFBD
:10264000FEF7B2F8B9F1000FBAD00A99A0EB080072
:102650008842B5D3204600F0EFFBD4F88C0040F45C
:102660008070C4F88C00012084F88900002084F870
:102670008800032001B0BDE8F08F00BF4FF6FF7166
:102680001FFA82FB7F0801205A1CA1F1010C0123D3
:10269000564600920FE000BF4FF0000AB3B21FFA97
:1026A0008AF0002B18BF012346EA0A01002818BF50
:1026B0000120090454D022681FFA8AF1DB0755690A
:1026C00018BF15F0020310D0B3B23B448B420CD9B3
:1026D000636E33F8026BA9F820606366B4F86A3061
:1026E000013BA4F86A30B4F86A605369C007D3D0DC
:1026F0005069C00716D159450ED213F400400BD0D3
:10270000B9F83010E06E20F8041BB9F8301020F84A
:10271000021C61460DE000BF012913D113F40050E3
:1027200010D000BFB9F83010E06E20F8021B4FF651
:10273000FF71E066B4F872000844A4F87200B4F8BF
:1027400072A0ABE76546FEF72FF8009931B10A9900
:10275000A0EB08008842AC46A0D37BE7AC469DE7DF
:102760000A9D681C14D000BF20684069000713D47C
:10277000FEF71AF8A0EB0800A842F5D3D4F88C00B5
:1027800040F02000C4F88C0006E000BFFEF70CF813
:10279000206840690007F9D5204600F04DFB012074
:1027A00084F88900002084F88800D4F88C00002880
:1027B00018BF012001B0BDE8F08F0000042888BFD9
:1027C0007047DFE800F0031B13352D004EF21000B8
:1027D000CEF20000016821F00401016040F6E440FF
:1027E000C4F20240016821F00C0120E04EF210001A
:1027F000CEF200000168022206E000BF4EF2100097
:10280000CEF200000168012221F00401016040F6CF
:10281000E440C4F20240016862F3830107E000BFB4
:102820004EF21000CEF20000016841F00401016098
:1028300070470000411E0020B0EB116F1CBF01204B
:1028400070474EF21002CEF20002516090601168A3
:1028500041F00301116070474EF21000CEF200000B
:102860000068400744BF0420704740F6E440C4F2CB
:102870000240006800F00C01081FB0FA80F0400927
:10288000082908BF02207047FEE700002DE9F04F3D
:1028900089B040F2B9300027C2F20000077040F65C
:1028A0008C400797CDE90577CDE90377C4F2024064
:1028B000016840F6000541F0010101600168C4F2C1
:1028C000022501F0010102910299016803AC41F077
:1028D0000201016001684FF4007601F002010291EB
:1028E000029901684FF0010841F00401016000689D
:1028F000214600F004000290029828460396CDE994
:1029000004870697FDF786FE28464FF400710122E2
:10291000FDF744FF28462146CDE90368CDE9057758
:10292000FDF778FE28464FF400710122FDF736FFCF
:102930001020A5F50066CDE9030830462146CDE913
:102940000577FDF767FE304610210122FDF726FFCF
:102950004020A5F58065CDE9030828462146CDE94C
:102960000577FDF757FE284640210122FDF716FFA7
:1029700046F6302B40F228360DF10809C0F6000B60
:10298000C2F200064FF0000A06E000BF0AF1010A99
:10299000BAF1040F00F08A800BEBCA085BF83A70BA
:1029A000B8F804504020ADF80800A5208DF80A00C2
:1029B000384629460022FDF7F1FE304649460322FB
:1029C0000A23FFF747FB0446384629460122FDF754
:1029D000E5FE002CDAD14120ADF8080000208DF88A
:1029E0000A00384629460022FDF7D8FE30464946FF
:1029F0000DF1210203230A240094FFF7A1FC0446F1
:102A0000384629460122FDF7C9FE002CBED19DF8AB
:102A10002300A528BAD14020ADF808005A208DF82F
:102A20000A00384629460022FDF7B8FE30464946DE
:102A300003220A23FFF70EFB0446384629460122EB
:102A4000FDF7ACFE002CA1D14120ADF8080000201C
:102A50008DF80A00384629460022FDF79FFE3046D1
:102A600049460DF1210203230A240094FFF768FC74
:102A70000446384629460122FDF790FE002C85D1F8
:102A80009DF823005A287FF481AFD8F804005BF842
:102A90003A5040F22801C2F2000140F2B932C1E9D5
:102AA00000500121C2F2000211700CE040F2B93076
:102AB000C2F20000007801286DD140F22800C2F275
:102AC000000005688088402186B2ADF80810F0212A
:102AD0008DF80A10284631460022FDF75FFE40F2CD
:102AE0002838C2F2000802A9404603220A23FFF751
:102AF000B1FA284631460122FDF750FE40F2280780
:102B0000C2F200073D68BE884FF4A070ADF808001F
:102B10000F242846314600228DF80A40FDF73EFE7C
:102B200002A9404603220A23FFF794FA28463146B9
:102B30000122FDF733FE3D68BE884FF45460ADF8C6
:102B400008002846314600228DF80A40FDF726FE8F
:102B500002A9404603220A23FFF77CFA28463146A1
:102B60000122FDF71BFE3D68BE884FF49250ADF880
:102B700008002846314600228DF80A40FDF70EFE77
:102B800002A9404603220A23FFF764FA2846314689
:102B90000122FDF703FE09B0BDE8F08F40F2B93025
:102BA000C2F2000000787047F0B583B040F228010F
:102BB000C2F200010C688D8841218DF809108DF852
:102BC0000A0000272046294600228DF80B70FDF7E9
:102BD000E5FD40F228300A260DF10901C2F200009D
:102BE0000DF1060203230096FFF7AAFB06462046D6
:102BF00029460122FDF7D2FD9DF80800002E18BFDE
:102C00003846C0B203B0F0BDB0B582B040F2280281
:102C1000C2F200021468958840228DF805208DF8D4
:102C200006008DF80710204629460022FDF7B6FD64
:102C300040F22830C2F200000DF1050103220A2300
:102C4000FFF708FA204629460122FDF7A7FD02B04A
:102C5000B0BD0000FEE70000FEE700007047000086
:102C600070B540F62C46C4F2024656F82C1C0446B9
:102C700021F0806046F82C0CFDF796FD054600BF5C
:102C800056F82C0C000105D5FDF78EFD401B0228DF
:102C9000F6D958E0306843F60371884394E80E0093
:102CA000084340EA0220E16830604FF47E4202EBC4
:102CB00041212269581E4FF4FE0389B203EB024200
:102CC0006FF35F20084402F4FE0162694FF0FE4397
:102CD00003EB0262084402F0FE41084430613068B0
:102CE000A16920F00C00084330603068E16920F0F1
:102CF000200008433060606A316808433060306803
:102D00004FF6F87120F0100030607069226A884335
:102D100040EAC2007061306840F01000306056F840
:102D20002C0C40F0806046F82C0CFDF73DFD04466D
:102D300056F82C0C000144BF002070BDFDF734FD97
:102D4000001B0328F4D3032070BD000070B540F6CB
:102D50003046C4F2024656F8301C044621F080503A
:102D600046F8300CFDF720FD054600BF56F8300C44
:102D7000800005D5FDF718FD401B0228F6D958E064
:102D8000306843F60371884394E80E00084340EA34
:102D90000220E16830604FF47E4202EB412122695B
:102DA000581E4FF4FE0389B203EB02426FF35F201B
:102DB000084402F4FE0162694FF0FE4303EB026235
:102DC000084402F0FE41084470613068A16920F0B7
:102DD0000C00084330603068E16920F020000843AF
:102DE0003060606A31680843306030684FF6F871CF
:102DF00020F010003060B069226A884340EAC200C7
:102E0000B061306840F01000306056F8300C40F08F
:102E1000805046F8300CFDF7C7FC044656F8300CDD
:102E2000800044BF002070BDFDF7BEFC001B0328DE
:102E3000F4D3032070BD0000016840F26F32D1F876
:102E400014C08B6943F008038B618B6943F0100356
:102E50008B610B6823F001030B600B6923EA02020C
:102E60000A618A6822F440428A6090F88920042A24
:102E700018BF1CF0200209D0D0F88C2042F080024C
:102E8000C0F88C208A6942F020028A6190F889207B
:102E9000032A18BF1CF040020CD15FEA8C5216D4F2
:102EA0005FEACC5220D40021A0F86A10A0F872107A
:102EB000704700BFD0F88C2042F00402C0F88C208C
:102EC0008A6942F040028A615FEA8C52E8D5D0F804
:102ED0008C2042F00102C0F88C208A6942F4007212
:102EE0008A615FEACC52DED5D0F88C2042F008022D
:102EF000C0F88C208A6942F480728A610021A0F8AF
:102F00006A10A0F87210704770470000FDF752BCBD
:102F100010B59CB040F6140408A85021C4F2024435
:102F2000FDF7A6FA0020CDE90600CDE90400CDE9C1
:102F3000020054F8040C20F0300044F8040C54F85B
:102F4000040C00F03000019001982068000709D4BB
:102F5000206800075CBF20685FEA007002D4206828
:102F60000007F2D540220D924FF480523220119288
:102F70004FF48072089001200F9220220B90109243
:102F80000222149081200821CDE91502002408A80E
:102F90000C91CDE91222CDE917221991CDE91A44FD
:102FA000FEF7FAFB10B172B6FEE700BF1F20CDE9B5
:102FB000020402A80121CDE90444CDE90644FEF74C
:102FC00025FA18B172B600BFFEE700BF42F200005A
:102FD000C4F20200016821F0300101601CB010BD94
:102FE0004EF6885CCEF2000CDCF80010012241F4B1
:102FF0007001CCF8001040F60041C4F202410A60B2
:103000000022CA610A620B684EF6E320CEF6E22087
:103010001840086040F28020C0F201108A62CA6243
:103020000A6348638A63C8630A6448648A640868F8
:1030300020F4802008600A654FF0006042F21C0115
:10304000C4F202014CF8800C51F8040C420F062A1D
:1030500005D800F06040B0F1404F18BF70470868D5
:10306000C0070BD042F63B20C0F6190041F8100C07
:1030700046F67F60C4F65D4041F8100C086840F0E9
:1030800002000860086840F0010008607047000016
:10309000002000F02FBE0000FEE700004FF0010C02
:1030A00001233E2A84BF1F234FF0050C134423FA4B
:1030B0000CF3C000DBB200EB810046F200413E2A77
:1030C00088BF013B4FEA8322C4F201014FF4004C58
:1030D00088BF4CEA8322435812049BB208BF4FF0CA
:1030E00000421A44425070472DE9F04140F2201549
:1030F000C2F200056978FF291CD046F60C28044668
:103100000026C0F6000800270DE000BF40462BD186
:10311000C1682046884769780137481CC0B2874299
:1031200006F1240606D2C8B28742EFD2A868D8B109
:103130003044EDE705F10C003721FDF799F94FF028
:10314000FF30C5F82F00C5F82B00C5F82700C5F8DB
:103150002300C5F81F00C5F81B00C5F81700C5F807
:103160001300BDE8F08100BF4EF6F050CEF2000033
:103170000068C00708BFBDE8F08100BEBDE8F0816F
:103180000878400604D0002001210822FFF786BFFE
:1031900048780528F7D14888012161F3DF1046F20D
:1031A0004C01C4F201010860002001210822FFF750
:1031B00075BF000070B540F2C03301F00F0010225F
:1031C000C2F20003082402EAD10203EB40104EB21F
:1031D00024EA111110440B1D0325807B46F2000CDC
:1031E00005FA03F306310125C4F2010C05FA01F1D9
:1031F0005CF82020194448F68F7348F2800EC0F224
:10320000FF7342EA0E04194302F4C0622023B6F1B0
:10321000FF3FC8BF4FF400532140B2F5806F18BF85
:1032200059404EF20812CEF200024FF48063C2F809
:103230008030BFF34F8FBFF36F8F4CF82010BFF378
:103240004F8FBFF36F8F136070BD000080B54EF2DB
:10325000081CCEF2000C4FF4806ECCF880E046F2F1
:10326000040240F2FC00BFF34F8FC4F201020023BE
:10327000C2F200004FF6FF71BFF36F8F1360C0F80A
:1032800006105360C0F80A109360C0F80E10D360A7
:10329000C0F812101361C0F816105361C0F81A106C
:1032A0009361C0F81E10BFF34F8FBFF36F8FCCF840
:1032B00000E0C021018080BD2DE9F04F81B08D7804
:1032C000C8780E468C8800F00301284600F084F987
:1032D000082819D246F20008C4F2010858F8201054
:1032E00047F27002CFF600026FB21140F27807F099
:1032F0000F0602F00302022A314411D0032A75D1CD
:10330000824648F280600EE04EF6F050CEF20000A9
:103310000068C00700D000BE002001B0BDE8F08FFB
:10332000824648F280006FF3DF2441EA00090DF184
:1033300003010DF1020220464FEAD51B01F0ACFB60
:1033400040F2FC02C2F200021188084483B21080ED
:10335000B3F5006F504609D94EF6F051CEF2000198
:103360000968C9074FF6FF7100D000BE08EBC00224
:103370008BF0010302EB83024FF6FF75D2F80034A5
:1033800021F00301AB4340F2C035C2F2000505EB6A
:103390004616194406EB0B13C2F8001420219C8139
:1033A0009873B7F1FF3FC8BF4FF400516FF0700240
:1033B00081EA0901002F48BF6FF4E04211404EF24C
:1033C0000812CEF200024FF48063C2F88030BFF3DF
:1033D0004F8FBFF36F8F48F82010BFF34F8FBFF3AD
:1033E0006F8F1360012001B0BDE8F08F4EF6F050F2
:1033F000CEF200000068C0078ED000BE002001B0F1
:10340000BDE8F08F80B540F2C03001F00F0C102203
:10341000C2F2000002EAD10300EB4C1049B218449A
:10342000807B46F2000CC4F2010C5CF82030B1F154
:10343000FF3F48F6BF7148F2800EC0F2FF7143EAC9
:103440000E03C4BF4BF68F71C0F2FF7101EA030196
:10345000C8BF4FF4805251404EF20812CEF2000223
:103460004FF48063C2F88030BFF34F8FBFF36F8F8C
:103470004CF82010BFF34F8FBFF36F8F136080BDE8
:10348000F0B581B040F2C03601F00F001027C2F253
:10349000000607EAD10706EB401649B2F019847B13
:1034A000F2510022B1F1FF3F42600381428137DDDA
:1034B00046F20006C4F2010656F82410858943F648
:1034C0000F72AB4238BF1D4601F4C060C0F2FF72FC
:1034D000B0F5806F01EA020704D1204600212A4698
:1034E000FFF7DCFD204601212A46FFF7D7FD4EF20B
:1034F0000811CEF200014FF480624BF28000C1F857
:1035000080207840BFF34F8FBFF36F8F46F82400C1
:10351000BFF34F8FBFF36F8F0A60012001B0F0BD82
:10352000214600F0BFFD012001B0F0BDF0B581B033
:1035300040F2C03601F00F001027C2F2000607EA81
:10354000D10706EB401649B2F019847B0025B1F192
:10355000FF3FF55142600381458137DD46F20006A9
:10356000C4F2010656F82410858943F60F72AB4267
:1035700038BF1D4601F4C060C0F2FF72B0F5806F25
:1035800001EA020704D1204600212A46FFF786FD02
:10359000204601212A46FFF781FD4EF20811CEF2A6
:1035A00000014FF480624BF28000C1F88020784027
:1035B000BFF34F8FBFF36F8F46F82400BFF34F8FD9
:1035C000BFF36F8F0A60012001B0F0BD214600F00B
:1035D00069FD012001B0F0BD70B540F2FC03C2F2FC
:1035E000000303EBD01600F00F02347901294FEAF3
:1035F000D01C0BD1012686EAD01E7CB1D8780128D8
:103600001ED1987890421BD1002070BD34B3D87879
:10361000884231D198789042F6D02DE003EB0E002D
:10362000007968B99878FF2818BF904208D1DC78F3
:103630009E1C012C4FF0000018BFFF2C00F0A4814D
:1036400003EB0C05287A28B3D879012834D198796E
:10365000904204BF012070BD2EE000BF9878FF2883
:1036600018BF904208D1DD789E1CFF2D4FF000005E
:1036700018BF8D4200F0888103EB0C05287A0028E2
:1036800044D0D87988424FD19879904204BF012024
:1036900070BD49E003EB0E00007A68B99879FF2805
:1036A00018BF904208D1DC799E1D012C4FF001001B
:1036B00018BFFF2C00F06881287B48B1D87A012818
:1036C00019D1987A904204BF022070BD13E000BF68
:1036D00003EB0E00007B70B9987AFF2818BF904268
:1036E00009D1DC7A03F10A06012C4FF0020018BF61
:1036F000FF2C00F04981287C10B3D87B012832D1FF
:10370000987B904204BF032070BD2CE09879FF287D
:1037100018BF904208D1DC799E1DFF2C4FF00100AC
:1037200018BF8C4200F03081287B002844D0D87A22
:10373000884250D1987A904204BF022070BD4AE07E
:1037400003EB0E00007C70B9987BFF2818BF9042F5
:1037500009D1DC7B03F10E06012C4FF0030018BFEA
:10376000FF2C00F01181287D40B1D87C012818D1B0
:10377000987C904204BF042070BD12E003EB0E0061
:10378000007D70B9987CFF2818BF904209D1DC7C7D
:1037900003F11206012C4FF0040018BFFF2C00F0BB
:1037A000F380287E20B3D87D012834D1987D9042C3
:1037B00004BF052070BD2EE0987AFF2818BF904204
:1037C00009D1DC7A03F10A06FF2C4FF0020018BF82
:1037D0008C4200F0D980287C00285FD0D87B8842BA
:1037E0006AD1987B904204BF032070BD64E000BFA3
:1037F00003EB0E00007E70B9987DFF2818BF904241
:1038000009D1DC7D03F11606012C4FF0050018BF2D
:10381000FF2C00F0B980287F40B1D87E012818D154
:10382000987E904204BF062070BD12E003EB0E00AC
:10383000007F70B9987EFF2818BF904209D1DC7EC6
:1038400003F11A06012C4FF0060018BFFF2C00F000
:103850009B8095F8200048B1D87F012840F09C80DB
:10386000987F904204BF072070BD95E003EB0E00E7
:1038700090F82000002840F08F80987FFF2818BF24
:10388000904240F08980DD7F03F11E06012D4FF04C
:10389000070079D0FF2D77D07EE000BF987BFF280E
:1038A00018BF904208D1DC7B03F10E06FF2C4FF0CD
:1038B000030018BF8C4267D0287D48B1D87C88426D
:1038C00014D1987C904204BF042070BD0EE000BF6C
:1038D000987CFF2818BF904208D1DC7C03F11206C7
:1038E000FF2C4FF0040018BF8C424DD0287E48B109
:1038F000D87D884214D1987D904204BF052070BDC8
:103900000EE000BF987DFF2818BF904208D1DC7DF3
:1039100003F11606FF2C4FF0050018BF8C4233D080
:10392000287F48B1D87E884214D1987E904204BF47
:10393000062070BD0EE000BF987EFF2818BF9042A1
:1039400008D1DC7E03F11A06FF2C4FF0060018BFE9
:103950008C4219D095F8200040B1D87F88421BD105
:10396000987F904204BF072070BD15E0987FFF2824
:1039700018BF904210D1DD7F03F11E06FF2D4FF0DE
:10398000070018BF8D4207D106EB0C0371700121AF
:103990003270997070BD00BF4EF6F050CEF200004C
:1039A0000068C0073FF430AE00BE002070BD0000CC
:1039B0002DE9F04383B00546407888460238052853
:1039C00000F20B81DFE800F0042E16220E8400BF07
:1039D00040F22010C2F20000002101734173017413
:1039E0008173FAE040F22010C2F200000178013148
:1039F0000170F2E040F22010C2F20000017B0029C9
:103A000000F0238101218173E7E000BF40F2201024
:103A1000C2F20000017B002900F0178100218173B0
:103A2000DBE000BF40F22019C2F2000999F8010062
:103A3000FF2823D046F60C240026C0F600040027F9
:103A400007E000BF411C0137C9B28F4206F12406CE
:103A500014D2C1B28F4205D2D9F808100029F1D092
:103A6000314401E02146EDD10A6A002AEAD02878E3
:103A70006968904799F80100E4E700BF99F80E00E3
:103A800000285ED0002089F80E002978D9F804407B
:103A90008DF800100521B8F1000F8DF8011002908B
:103AA000019033D040F20800C2F20000028904F114
:103AB00008006946002301F0D9FC0646CEB39DF804
:103AC00000009DF80110424602F0C2F839E000BF44
:103AD000297911F00F0000F0808040F22013C2F22B
:103AE000000303EB40005F7800EBD11292F8232033
:103AF000974251D99B68002B6FD002EBC20203EBB7
:103B00008202D369002B4ED167E000BF40F2080665
:103B1000C2F2000671688847328904F108006946DC
:103B2000002301F0A3FC7168064601208847002E9F
:103B3000C5D14EF6F050CEF200000068C00700D0AC
:103B400000BE99F81200C00700F07F802878D9F8ED
:103B500004408DF8000003208DF801006868B8F17A
:103B6000000F019078D040F20800C2F200000289F4
:103B700004F108006946002301F078FC0546002D99
:103B800000F07F809DF800009DF80110424602F091
:103B90005FF803B0BDE8F0831FD146F60C22C0F6F3
:103BA0000002D369CBB1CB09C41814F8330F00F06D
:103BB000FE002070207800F0FB002070D769287884
:103BC0006A79AB68B84700283FD1207840F00100FF
:103BD0002070207840F00400207040F22010C2F2E3
:103BE00000004468B8F1000F14D040F20800C2F29F
:103BF0000000028904F108002946002301F036FC88
:103C00000646DEB128786978424603B0BDE8F04345
:103C100002F01EB840F20806C2F2000671680020E9
:103C20008847328904F108002946002301F01EFC70
:103C30007168064601208847002EE3D14EF6F05009
:103C4000CEF200000068C00702D103B0BDE8F083E7
:103C500000BE03B0BDE8F08340F20805C2F20005E3
:103C60006968002088472A8904F108006946002312
:103C700001F0FCFB6968054601208847002D7FF4B0
:103C800081AF4EF6F050CEF200000068C007DCD0E5
:103C900000BE03B0BDE8F08310B500F06BFA46F249
:103CA0004004C4F2010400202060206840F45D401C
:103CB000206000F087FAA06940F400410120A16172
:103CC00010BD00004EF28810CEF200004FF480616B
:103CD0000160BFF34F8FBFF36F8F7047BFF34F8FFC
:103CE0004EF20810BFF36F8FCEF200004FF48061E8
:103CF000016070472DE9F04F89B046F24005C4F2EB
:103D000001056C68A0050ED56FF400706860A868A6
:103D10004FF440716FF3DF20ADF81810079006A83C
:103D20000121FFF745FE60050AD4E0041CD42005FC
:103D30002FD4E00542D401946868000453D563E0B1
:103D40006FF48060686000F03DFA4FF48070ADF869
:103D5000180000208DF81C0006A80121FFF728FE9E
:103D600009B0BDE8F08F00BF2868012120F00400F1
:103D70002860286820F0080028606FF48050686090
:103D80004FF4A060ADF8180006A8FFF711FE20055B
:103D9000CFD52868012140F008002860286840F04D
:103DA000040028606FF4006068604FF48060ADF834
:103DB000180006A8FFF7FCFDE005BCD540F2B830BE
:103DC000C2F20000017839B1012903D12A6822F03A
:103DD00010022A60013901706FF4807068600194EC
:103DE0006868000410D4019840040AD54EF6F050DB
:103DF000CEF200000068C00700D000BE6FF4804023
:103E0000686009B0BDE8F08F40F60F79A5F1400475
:103E10004FF0140805F57070C0F2FF79029012E0BF
:103E200001F180004FF4E0618DF81C000020ADF836
:103E300018108DF81D0006A801210892FFF7B8FDA3
:103E400068680004CFD5686800F00F0654F826A013
:103E50005FEA0A4040F1D480CDF80C800398A0B10D
:103E6000039801380390039878B1039801380390C0
:103E7000039850B1039801380390039828B1039830
:103E80000138039003980028EAD15FEA0A502FD442
:103E900054F8260040F2C03700EA090040F08000E4
:103EA00044F8260054F826B0029B0BF48C4003EB38
:103EB000C6010BF00F09B0F58840C2F2000718BF29
:103EC000012051F8202007EB491851F82010D8F8AC
:103ED000040089B2C2F30947002819443CD00022EB
:103EE0000792042206923A4606AB01F0BFFA3EE082
:103EF000029A002302EBC60041684068C1F30947FB
:103F000080B204A910443A4601F0EEFC54F82600B1
:103F1000082F00EA090040F0800044F826000DD187
:103F20004FF4C060ADF81800DDE90410CDE90710CA
:103F300006A80121FFF73CFD62E000BF4EF6F050FD
:103F4000CEF200000068C00700D000BE00200121B2
:103F50000822FFF7A3F853E0D8F80000B8F80A20C9
:103F600000230244084611463A4601F0BDFCB8F869
:103F70000A00B8F80C2038449742A8F80A0023D366
:103F8000B8F8081083B299421ED90BF4C063B3F598
:103F9000806F08D0081A80B20121904238BF0246D3
:103FA0003046FFF77BF840F60F79C0F2FF7909F54C
:103FB000405000EA0B004BF2800148404FF01408DB
:103FC00044F826001CE000BF30460121FFF766F8E8
:103FD000B8F80A004FF4E061ADF818100890002717
:103FE00006A801218DF81C908DF81D70FFF7E0FCEC
:103FF00040F60F79C8F808704FF01408C0F2FF7946
:104000005FEA0A607FF51CAF54F8260000EA090059
:1040100040F4004044F8260054F8262040F2C03016
:1040200002F00F01C2F2000000EB411002F4C06385
:10403000B3F5806F00F1100012D1C37B002B3FF469
:10404000FFAE012323EA921205EBC60303EB8202C3
:104050000023C373D2F8C0336FF31943C2F8C033DF
:10406000028943899A423FF4DBAE314600F01AF8E8
:10407000E6E6000040F2C030C2F20000002240F844
:10408000102F817B4260826000F00CB846F2400045
:10409000C4F20100026822F4007261F34922026056
:1040A000704700002DE9F04782B0054600896A8913
:1040B0008A4646F20041C4F20101801AA1F58068E7
:1040C00080B2AE8958F82A70B04238BF064607F46D
:1040D000C0690020B9F5806F08BFC7F380104FEAB0
:1040E000CA0343EA8000435844189BB268681944E5
:1040F0004FF0000340B10422019300926B46324618
:1041000001F096F907E000BF28680244084611460E
:10411000324601F03FFC6889B9F5806F3044688110
:1041200020686FF39F266FF3194040EA064048F27B
:10413000B001206004BF0120E87340F63F70C0F278
:10414000FF70384048404EF20811CEF200014FF4A3
:104150008062C1F88020BFF34F8FBFF36F8F48F8A4
:104160002A00BFF34F8FBFF36F8F0A6002B0BDE824
:10417000F087000082B046F24000C4F20100032143
:10418000016000210191019AC72A06D800BF019A57
:1041900001320192019AC82AF8D3026822F0020281
:1041A000026000910099C72907D800BF00BF00999D
:1041B000013100910099C829F8D30021416002B073
:1041C000704700002DE9F04182B046F2000440F251
:1041D000FC054FF6FF70C4F201040027C2F200058F
:1041E000E764C5F80200C5F80600C5F80A00C5F87E
:1041F0000E00C5F81200C5F81600C5F81A00C5F87B
:104200001E0040264EF6F05800200021CEF2000895
:104210002E80FFF7E1F980200021FFF7DDF940F261
:10422000C030C2F2000086818773868387770DF1E4
:10423000050101AA402000F02FFC2F88384481B2EC
:104240002880B1F5006F06D9D8F800004FF6FF7747
:10425000C00700D000BE0DF107010DF1060240209D
:1042600000F01AFC2988084482B22880B2F5006F59
:1042700006D9D8F80000C00700D000BE4FF6FF7185
:1042800046F20440C4F2010002684FF6FF739A43FD
:1042900027F003031A440260D4F8000421F003015C
:1042A0006FF30F000844C4F80004206847F270015F
:1042B000CFF60001084042F2202180EA01050020EB
:1042C00001210822FEF7EAFE80202560E06402B0AA
:1042D000BDE8F081E2B040F68C47C4F20247FCF73B
:1042E00077FAFEF715FE00262C96CDE92A66CDE971
:1042F0002866386840F6000540F0010038603868EC
:10430000C4F2022500F001000E900E9838684FF4B8
:10431000007140F0040038603868012200F00400A9
:104320000E900E9838684FF4007840F00200386024
:104330003868012400F002000E900E982846FCF721
:104340002DFACDE9288428AC28462146CDE92A66F5
:10435000FCF760F96096CDE95E66CDE95C66386889
:104360005CA940F001003860386800F00100289036
:1043700028984FF4C0505C9002205D9003205F901D
:104380000A206090A5F50060FCF744F9FCF7EAFA12
:1043900004F10800C821FCF76BF81020CDE9286073
:1043A000302059902046FCF70DFB18B172B600BFC3
:1043B000FEE700BFB869052140F08070B861B869B8
:1043C000002200F080700E900E984A20FCF78EFAC2
:1043D0004A20FCF779FA3869202540F0807038616E
:1043E000386900F080700E900E984FF00050CDE9C3
:1043F00023064BF67F3025902220269022A8229675
:104400002795FCF7B9FA0EAC201D4C21FCF730F8CB
:104410004FF48050179020460E95FDF7BDF900200F
:10442000002102F0BDF86420FCF7C4F840F2283007
:1044300043F200074FF48001C2F20000C4F201070A
:1044400007224FF08063C0E9007100F118014FF0BE
:10445000E045C0E90262C0E9046668C1C0E90966D6
:10446000C262C0E90D66C663C0E91266C0E914669F
:10447000C0E916660666FDF7B1FC18B172B600BF5A
:10448000FEE700BFFEF702FA4FF0000ACDE90CAAE2
:10449000CDE90AAAFEF782FB83460DF128094FF009
:1044A000000800250020019002E000BF354600BF53
:1044B0004FF0FF30002101F03FFDFCF775F9BBF133
:1044C000000F064600F0928101F0A4FC0028EFD016
:1044D000701B0228ECD312200E21FEF795FBCDF8BD
:1044E00084A1619877281BD800BF61980130619042
:1044F0006198772814D800BF619801306190619865
:1045000077280DD800BF61980130619061987728B5
:1045100006D800BF61980130619061987828E3D394
:104520001320FEF741FB09901320FEF73DFB089096
:104530001320FEF739FB079012200D21FEF764FBD4
:10454000CDF884A1619877281CD800BF00BF61987E
:10455000013061906198772814D800BF61980130CC
:104560006190619877280DD800BF61980130619003
:104570006198772806D800BF6198013061906198F2
:104580007828E3D31320FEF70FFB06901320FEF7E5
:104590000BFB05901320FEF707FB054612200B21AD
:1045A000FEF732FBCDF884A1619877281CD800BFB4
:1045B00000BF6198013061906198772814D800BFDE
:1045C000619801306190619877280DD800BF61989B
:1045D000013061906198772806D800BF619801305A
:1045E000619061987828E3D31320FEF7DDFA07463F
:1045F0001320FEF7D9FA82461320FEF7D5FA0446B7
:1046000012200721FEF700FB0020619061987728B7
:104610001CD800BF00BF6198013061906198772875
:1046200014D800BF619801306190619877280DD847
:1046300000BF6198013061906198772806D800BF6B
:1046400061980130619061987828E3D344EA0A00C8
:1046500038400AEA0401084300F00F0103910421E5
:10466000059B8143069A049145EA0301114003EA40
:104670000502DDE90757114301F00F02069201F030
:104680000402099B4FEAC21A45EA07021A4007EAE8
:1046900005031A4302F00F0343EAC207112502F093
:1046A000040225EA070747EA8212082B38BF02F501
:1046B00080520223202723EA410327EA0111042420
:1046C000079124EA80010991402121EA40100890D5
:1046D000D01805901320FEF767FA05461320FEF761
:1046E00063FA07461320FEF75FFA40EA0701294004
:1046F00038400843082121EAC007802121EA8014BC
:10470000042100F00F0521EA0000029012200F2181
:10471000FEF77AFA079805990844069980F48070A4
:10472000082938BF0AF5005A8AF400710843039932
:104730004FF0000A082938BF40F480400999082D3D
:1047400040EA0100089940EA0100049940EA01208A
:1047500038BF40F4004002993843204340EA4125E5
:10476000002701241BE000BF82B207F13C0079B3AF
:1047700090218DF885017F2048EA02088DF8841188
:104780008DF886010020002161AA032301F062FA5E
:10479000012409F807A00137102F3FF487AE04FA6F
:1047A00007F000EA080310EA0501B3FA83F30A46AA
:1047B0004FEA531318BF01225A40EAD119F80720D3
:1047C000072AD1D802F1010209F80720CCD0E2E78C
:1047D0004FF6FF71514008EA010880218DF88411DD
:1047E0008DF885018DF886A1CCE700BF01984FF0C8
:1047F000000B301AB0F57A7FFFF45AAEFEF746F898
:10480000FEF7CCF98346019652E60000002070477F
:104810000120704770B584B040F2A414C2F20004C5
:104820002046C021FBF724FE04F14000402500266D
:104830008DE8610004F12800002100220023039587
:1048400000F0B2FA04F1800104F110008DE862007A
:10485000002101220023039500F0A6FA04B070BDE8
:104860002DE9F04F81B04B798E18012B0F4615D1F1
:104870008B790F46012B11D1CB790F4673B90B7889
:10488000934201EB030709D23A783A44B24205D881
:104890007B78242B02D1B2421746F5D37A78042ACA
:1048A00007D17A79012A04D1BA79032A01D1FA7998
:1048B00022B1002080B201B0BDE8F08F40F2A41810
:1048C000C2F2000898F82A2098F81230002A18BF7F
:1048D0000122002B18BF01231A40012A0CD14EF6E9
:1048E000F050CEF200000068C007E2D000BE002009
:1048F00080B201B0BDE8F08FBB7888F8000088F87E
:1049000001303A793B78002A07EB030450D0B442D7
:104910004ED24FF0000919E0A18888F812006FF319
:10492000DF2108F11C0088F810B0A8F8141000F07E
:1049300095FB20783A79235C044409F1010951463A
:10494000584691451C4438BFB44231D22378E5180B
:10495000B5422DD86578052DF3D18A462146834688
:1049600001F064FF50B394F90200B0F1FF3FD3DDD2
:10497000454605F828BFA188A8706FF3DF2105F12F
:104980000C00A98000F06AFB284600F02FFA0028EE
:10499000CFD14EF6F050CEF200000068C0073FF4D1
:1049A00088AF00BE002080B201B0BDE8F08F00BF2C
:1049B000601A80B201B0BDE8F08F00BF4EF6F05033
:1049C000CEF200000068C0073FF473AF00BE0020C5
:1049D00080B201B0BDE8F08FB0B540F2A414C2F2CD
:1049E0000004002504F13400C4E90055C4E902556F
:1049F00000F034FB04F11C0084F82A5000F02EFB78
:104A0000A574B0BDF0B581B040F2A417C2F20007A2
:104A100097F82A00BC7C451A18BF0125661A18BFF2
:104A200001262E40012E0BD14EF6F050CEF20000A2
:104A30000068C00700D000BE002001B0F0BD00BF7C
:104A4000884213D152B9396B29B19AB207F13400B7
:104A5000002300F00BFD002001F0D8F907F1280039
:104A600000F0C4F9012001B0F0BD00BF002A4FF0F2
:104A7000000008BF8C4201D001B0F0BD07F1100565
:104A800028461C4600F04AFA0028EBD12846214669
:104A900000F0A4FAE6E7000080B54FF0000C012317
:104AA0004FF0010E3E2888BF4FF0010C84BF4FF03D
:104AB0001F0E0523704420FA03FE5FFA8EF0984023
:104AC00081F800C082F800E080BD0000B0B54A88DF
:104AD0000C464FF0FF3101EB12210E291BD8054681
:104AE000DFE801F00822141919323E1919191919B1
:104AF00019191C0001F02EF800283FD00246284664
:104B000021461223BDE8B04000F0B0BFA188D0B26A
:104B100001F02AF8E0B90020B0BD00BF01F012F8A2
:104B20000028F8D0024621E0D0B201F00DF802468C
:104B3000E0B94EF6F050CEF200000068C007EAD0AF
:104B400000BE0020B0BD00BF01F00AF80028E2D08E
:104B50000378024628462146BDE8B04000F086BFF3
:104B6000D0B200F0FFFF02460028D4D05388284678
:104B70002146BDE8B04000F079BF00BF4EF6F050CE
:104B8000CEF200000068C007C5D0002000BEB0BD56
:104B90002DE9F04F83B08346481EC0B200F0D4FF29
:104BA000E0B14178022919D140F2201AC179C2F24C
:104BB000000A9AF80F20C1F3801102F0FE0211449E
:104BC0008AF80F1041880A2970D346F60C2900EBA9
:104BD000010800F10905C0F6000912E04EF6F05098
:104BE000CEF200000068C00700D000BE002003B075
:104BF000BDE8F08F0B29054666D145454FF0010011
:104C0000F5D228782844404550D869780429F1D154
:104C10009AF80100FF2825D0A8EB05018EB20024E8
:104C2000002700BFC0B2874206D2DAF80800002889
:104C300040D0204402E000BF48463BD103695846BB
:104C4000294632469847092828BF86420ED29AF84C
:104C500001000137411CC9B28F4204F12404E1D3A1
:104C600015E000BF0027FF2011E000BFFBB20AF1F2
:104C700023010AF113020646184610233446CDE9F3
:104C8000005600F035F848B39AF801002544013089
:104C9000C0B2F9B28142B0D34EF6F050CEF200006D
:104CA0000068C007A2D000BEA0E700BF012003B08B
:104CB000BDE8F08F4EF6F050CEF200000068C0075D
:104CC0003FF494AF00BE91E74EF6F050CEF20000F4
:104CD0000068C0073FF48AAF00BE87E74EF6F05089
:104CE000CEF200000068C0073FF480AF00BE7DE751
:104CF000B0B5059C44B3DDF810C00CEB040E05E024
:104D000020709CF80040A444F4451DD29CF800405B
:104D10006444744518D89CF80140042C0AD0052C32
:104D2000EFD19CF8024004F00F0501EB450505EBBF
:104D3000D414E5E79CF80340002CE2D19CF8024033
:104D40009C4203D21444DBE70120B0BD4EF6F05084
:104D5000CEF200000068C00704BF0020B0BD0020F4
:104D600000BEB0BD0178C9070ED1017849070BD448
:104D70000178C90708D10178490705D4017841F0C5
:104D80000401017001207047002070470178490735
:104D900008D50178C90705D1017801F0FB01017040
:104DA0000120704700207047F0B581B08C46DDE9E6
:104DB000061200298E46144618BF4FF0010E002A35
:104DC00018BF012404EA0E04012C0BD180F801C0A5
:104DD00000F10C0CDDE908650746604600F042F979
:104DE000BE60FD80204601B0F0BD00000246008A92
:104DF000918AD38AC91A48BF01EB4001938889B2CE
:104E0000411A4FF0000038BF0146994206D391780D
:104E1000002908BF7047507810B10020704700BFCC
:104E200010B582B01078144601F0D2FC00284FF083
:104E3000000042D02346218AA28AE48A121B48BF7E
:104E400002EB410292B28A1A998828BF1046884222
:104E500006D2587880BB1878997801F0FBFC2BE0DB
:104E60004942084080B2DC885978A04238BF0446E5
:104E7000D1B99A681878997852B14FF0000C23464E
:104E8000002C08BF2246CDF800C001F011FD08E05B
:104E900003F10C024FF0000C2346CDF800C001F0E6
:104EA0004DFD0146204641B94EF6F050CEF20000CD
:104EB0000068C00700D000BE002002B010BD000096
:104EC000002A04BF00207047B0B592B204460C30EF
:104ED000002300F0CBFA218AA28AE38AD21A48BFC3
:104EE00002EB410293B2A2888B4228BF0B46934249
:104EF00002D2914228BFB0BD0546204600F00EF810
:104F00002846B0BD018A828AC08A101A48BF00EBC9
:104F1000410080B2081A38BF00207047018A828A97
:104F2000C38AD21A48BF02EB410292B28A4238BF0A
:104F3000114619B1817809B142780AB10020704751
:104F4000B0B582B00546007801F042FC002841D09F
:104F5000A9682B4605F10C04B1B1DA88204600237C
:104F600000F066FA2B465978E0B159BB9A680546BD
:104F7000187899784FF0000CD2B12B462C46CDF81A
:104F800000C001F095FC1AE0188A998ADA8A891A19
:104F900048BF01EB400189B2814238BF08465978C9
:104FA0000028E2D1B1B91878997801F053FC11E0EA
:104FB00022462B462C46CDF800C001F0BFFC01462E
:104FC000284641B94EF6F050CEF200000068C00706
:104FD00000D000BE002002B0B0BD000010B582B00D
:104FE000838AC48A02464FF0000031B1A34204D143
:104FF00090880138084203D0002002B010BD00BFE5
:1050000091780029F8D050780028F5D1107814460E
:1050100001F0DEFB0028EFD06078B0B9A3682078FB
:10502000A178224633B1002400220023009401F02D
:105030003FFC05E00C3200240023009401F07EFCCC
:1050400000281EBF012002B010BD4EF6F050CEF277
:1050500000000068C007CFD000BECDE7002141812D
:1050600001817047B2F5004F05D8016000218280B0
:105070008371418101810020B2F5004F98BF01206A
:10508000704700002DE9F04F83B00C9E87889D1B70
:1050900048BF05EB470593462A0441D0AAB2974280
:1050A00006D23A469F4298BF5242D6183D464681A4
:1050B0000D9A00BFB3B2BB420ED3F61BB3B2BB42D4
:1050C0000AD3F61BB3B2BB4206D3F31B9EB2BE4259
:1050D000A3EB0706EED21E46ABB2A7EB06085B4574
:1050E00038BF9B46B3B20AB31FFA88F7D0F800A0C6
:1050F000BB450AEB030931D91478CDF800B0604202
:1051000000EA08001FFA80FEA64563D2CC460F468F
:1051100072460004A4F1010B40F0B380BDE000BF73
:105120004FF0000B584603B0BDE8F08F1FFA88F52A
:105130000268AB451A4443D9064608460F46114655
:105140002A46ABEB0804FBF72CF93168A2B27819B8
:10515000FBF727F9584603B0BDE8F08F12785846A0
:10516000934503D25A46000476D1DBE7D9F80030E4
:10517000801A0F4685B247F8043B954209EB0203BB
:1051800054D3801A87B259F8025097424D6055D3D4
:10519000801A87B259F81250974202EB42078D608D
:1051A00054D359F80770801A1344CF6087B2134460
:1051B00003EB0209974201F11001D7D248E000BF8A
:1051C000084611465A46FBF7ECF8584603B0BDE8CE
:1051D000F08F00BF0F46CC46DCF80020001B3D4698
:1051E00086B245F8042BA6420CEB040222D3001B26
:1051F00086B25CF80450A6427D6023D3001B86B2C1
:105200005CF8143004EB4405A642BB6032D35CF872
:105210000530001B2244FB6083B2224402EB040CE5
:10522000A34207F11007D7D226E000BF99463946BE
:105230000EE000BF94462F461EE000BF09EB420976
:10524000083105E00CEB440C083715E00C31B9448B
:1052500082B200043FF466AF0020029002A80C4620
:105260004946FBF79EF802982060584603B0BDE817
:10527000F08F00BF0C37AC4482B20004A4F1010BE4
:105280000BD00020029002A80D4661467646FBF73F
:1052900088F80298B646294638600098A0EB0807BF
:1052A0000BEA08005FFA80FBBBF1000F0EEB010870
:1052B00020D0A4EB0B0009EB0E010DF1040986B21E
:1052C00048465A46FBF76DF8B8B2B04238BF0646BA
:1052D000F5B22DB109EB0B0051462A46FBF761F8F8
:1052E00005EB0B02A2420BD2DDF800B001A9464645
:1052F00041E000BFDDF800B038044AD112E700BF3A
:10530000DDF800B0AC4601A9464600BF0868121B94
:10531000334695B243F8040BA54201EB04001BD3BE
:10532000121B93B20D59A342756019D3121B93B28D
:1053300051F81450A342B56016D304EB4403121B7A
:105340002044C95893B22044F1600119A34206F1E8
:105350001006DBD20CE000BF01461E4608E000BF8D
:1053600001EB4401083603E004EB44000C36014431
:1053700092B2654632B10020029002A8FBF711F804
:105380000298306008F104087F1BAA4438043FF4F7
:10539000C9AEBAB2A2423ED3DAF800003F1B414682
:1053A000BAB241F8040BA2420AEB040020D33F1B1F
:1053B000B9B25AF80420A142C8F804201CD33F1BFC
:1053C000B9B25AF81420A142C8F808201AD304EB45
:1053D00044013F1B5AF801102044C8F80C10B9B220
:1053E000204400EB040AA14208F11008D4D20EE0D8
:1053F000824688460BE000BF0AEB440A08F1080821
:1054000005E000BF04EB440008F10C088244BAB286
:10541000002A3FF487AE0020029002A85146FAF716
:10542000C0FF0298C8F80000584603B0BDE8F08FEE
:1054300010B582B09C460389B0F80AE00446CDE975
:1054400000ECFFF71FFEA188B4F80AC00CEB0003C4
:105450009AB2A3EB410EB2EB410F28BF73466245EF
:1054600038BF7346638102B010BD00002DE9F04FD4
:1054700087B0002A6ED01446B0F808A04289877918
:1054800084468088C7B1A0425CD9BAEB020748BF06
:1054900007EB4007BFB22744B7EB400F1AD3071BF7
:1054A00007EB020A1FFA8AF7974224BF4200BA426A
:1054B00098BFAAEB400A0DE0BAEB020248BF02EB2C
:1054C000400292B2821A38BF0022944228BF14468A
:1054D00022043FD0524600BF97B287420ED3121A21
:1054E00097B287420AD3121A97B2874206D3171A85
:1054F000BAB28242A7EB0002EED23A46A0EB020813
:1055000097B21FFA88F6A2B253B3DCF80000B24299
:1055100000EB070B36D9CDF808A093F800A004944F
:10552000CAF1000008EA0004A2B2CDF80CC052454E
:10553000019255D258460D462704AAF1010740F0C2
:10554000A080A8E0271A92460446002B08BF3944E1
:105550002204BFD10024A0B207B0BDE8F08F00BF85
:10556000DCF80000B2423844654640F2A48132467D
:10557000A4EB08080F46FAF714FF28681FFA88F210
:10558000B91998E11B789A426ED320460F4657F816
:10559000042BC01A85B2CBF800209D420BEB03020E
:1055A0004CD3C01A87B24D689F424BF803504DD37D
:1055B000C01A87B28D689F4203EB43074BF8135024
:1055C0004CD3CD68C01A1A444BF8075087B21A441E
:1055D00002EB030B9F4201F11001D7D240E000BF64
:1055E0000D4658462F4657F8042BA4EB0A04A6B2E2
:1055F0000260564500EB0A0224D3A4EB0A04A7B2CA
:105600006E68574540F80A6024D3A4EB0A04A7B299
:10561000AE6857450AEB4A0740F81A602AD3EE688D
:10562000A4EB0A045244C651A7B2524402EB0A004A
:10563000574505F11005D5D21EE000BF9346394607
:105640000EE000BF10463D4616E000BF0BEB430BDB
:10565000083105E000EB4A0008350DE00C31BB4491
:1056600082B2002A00F02A81086806A906905846EE
:10567000654620E10C353844A2B22704AAF101079F
:1056800009D02E6806AC0D46214606961C46FAF750
:1056900088FE294623460498A0EB080907EA08007B
:1056A000019FC2B207EB0108B2B1AAEB020080B2BF
:1056B0001FFA89F1814238BF08465FFA80FE1D78E3
:1056C00000927244AA420BEB0700019010D276467A
:1056D0009A4605A8474641E0DDF80CC0DCF800001A
:1056E000049CDDF808A05FEA094140F09A80E5E0FB
:1056F00005A84746394651F804CB521B96B2C0F86C
:1057000000C0AE4200EB05061AD3521B91B27C6872
:10571000A942445118D3521B91B2BC68A94205EB6F
:10572000450140F8154013D3FC68521B2E444450E9
:1057300091B22E447019A94207F11007DAD209E09C
:1057400030460F4606E000BF00EB4500083701E099
:105750000C37084492B276469A4622B139680691CF
:1057600006A9FAF71EFE009C0DF1140B019859468C
:10577000224608F10408FAF714FEDDF80CC0002EEA
:1057800043D0042E06F0030002D2002123E000BF24
:1057900006F0FC0104EB0B024942531C6FF00302BC
:1057A0009F18DCF80040FD7814442571DCF80050A7
:1057B0003C7915446C71DCF800507C791544AC716F
:1057C000DCF80050BF79154404328C180434EF71B2
:1057D000E6D1009C111DC0B10A191BF80220DCF8AB
:1057E000003001285A5410D04A1C13191BF80330FA
:1057F000DCF800700228BB54009A06D0881C81187F
:105800001BF80110DCF800201154DCF80000A9EBB3
:10581000060930445346049CDDF808A05FEA0941BC
:105820004CD019781FFA89F28A423FD3434653F885
:10583000042BA9EB01091FFA89F702608F4200EBE4
:10584000010223D3A9EB01091FFA89F3D8F80470E8
:105850008B4247501ED3A9EB01091FFA89F3D8F8F0
:1058600008708B4201EB410340F8117018D3D8F84F
:105870000C70A9EB01090A44C7501FFA89F30A44C6
:1058800050188B4208F11008D0D20CE01046984610
:1058900009E000BF00EB410008F1080803E000BF89
:1058A00008F10C0818441FFA89F23AB1D8F8001030
:1058B0006546069106A9FAF774FDAC460AEB0401A9
:1058C000BCF804008AB2A1EB4003B2EB400F28BF42
:1058D00019461FFA8AF0824238BF1946ACF8081000
:1058E000A0B207B0BDE8F08F10B582B0002B14BF96
:1058F00093F800E04FF0040E724503D213461204F1
:1059000038D13FE0034653F804CBA2EB0E0294B229
:10591000C1F800C0744501EB0E0C1FD3A2EB0E02C0
:1059200093B24468734541F80E401DD3A2EB0E02BA
:1059300093B2846873450EEB4E0341F81E4023D3A7
:10594000C468A2EB0E02F444CC5093B2F4440CEBC6
:105950000E01734500F11000D4D208E061461846EC
:1059600093B2120406D10DE001EB4E01083093B260
:10597000120407D0006801AA0190084611461A4691
:10598000FAF70FFD02B010BD0C30194493B21204A7
:10599000F0D1F7E7F0B581B0002B074614BF1878B7
:1059A0000420824204D21346100433D13AE000BFEF
:1059B0000B68121A3C4695B244F8043B854201EB51
:1059C00000031BD3121A95B20C5885427C601BD37E
:1059D000121A95B251F8106000EB40048542BE6087
:1059E00022D3121A0344095996B20344F9601918D4
:1059F000864207F11007DBD209E000BF19462746AF
:105A000093B2100406D10DE001EB4001083793B2C8
:105A1000100407D00020009068461A46FAF7C1FC2F
:105A20000098386001B0F0BD0C37214493B21004E7
:105A3000F0D1F7E780B582B0D1F800C04B6840F2F2
:105A4000A802C2F200024FF0000EC2E900C3C2E990
:105A500002EE0978802222EA010100220023CDF81B
:105A600000E000F025FF02B080BD0000F0B581B07D
:105A70000D684F6840F2A806C2F20006C6E900575A
:105A8000CC884FF0000CA3422746B260A6F80EC0A7
:105A900038BF1F46B7816CB112BB0BB34EF6F05046
:105AA000CEF200000068C00700D000BE002001B0A8
:105AB000F0BD00BF0978802222EA01010022002304
:105AC000CDF800C000F0F4FE60BB4EF6F050CEF210
:105AD00000000068C007E9D000BE002001B0F0BDA2
