:020000040800F2
:10000000C00F0020210300080D5F0008095B0008F5
:10001000095F000861090008D56D00083303000876
:10002000000000000000000000000000BD610008AA
:10003000390B000800000000115F0008C1610008D2
:100040003D0300083D0300083D0300083D03000890
:100050003D0300083D0300083D0300083D03000880
:100060003D0300083D0300083D0300083D03000870
:100070003D0300083D0300083D0300083D03000860
:100080003D0300083D0300083D0300083D03000850
:100090003D0300083D0300083D0300083D03000840
:1000A0003D0B00083D0300083D0300084D0B000810
:1000B0003D0300083D0300083D0300083D03000820
:1000C0003D0300083D0300083D0300083D03000810
:1000D0003D0300083D0300083D0300083D03000800
:1000E0003D0300083D0300083D0300083D030008F0
:1000F0003D0300083D0300083D0300083D030008E0
:100100003D0300083D0300083D0300083D030008CF
:100110003D0300083D0300083D0300083D030008BF
:100120003D0300083D0300083D0300083D030008AF
:100130003D0300083D0300083D0300083D0300089F
:100140003D0300083D0300083D0300083D0300088F
:100150003D0300083D0300083D0300083D0300087F
:100160000000000000000000656D00083D0300086D
:100170003D0300083D0300083D0300083D0300085F
:100180003D0300083D0300083D0300080000000097
:10019000000000003D030008000000000000000017
:1001A00000000000000000003D0300083D030008BF
:1001B0003D0300083D0300083D0300083D0300081F
:1001C0003D0300083D03000800000000000000009F
:1001D0000000000000000000000000003D030008D7
:1001E0003D0300083D03000800000000000000007F
:1001F0003D0300083D0300083D0300080000000027
:10020000000000003D0300083D0300083D03000816
:100210003D0300083D0300083D0300083D030008BE
:100220003D03000800000000000000003D0300083E
:100230003D03000800000000000000000000000076
:100240000000000000000000000000003D03000866
:100250003D03000800F002F800F052F814A696E8FA
:10026000000CB244B344DA4501D100F049F8BAE8D1
:100270000F000FA696E83000A5EB040504EB060777
:10028000AAEB0704A7F101074FEA15154FEA34144A
:10029000A4F10104AC4201D300F032F813F0010FD5
:1002A00018BFFB1A43F0010300F001F8DBE7184721
:1002B000ACA70000CCA70000103A24BF78C878C1D2
:1002C000FAD8520724BF30C830C144BF04680C605C
:1002D000704700007047000000230024002500261E
:1002E000103A28BF78C1FBD8520728BF30C148BF99
:1002F0000B6070471FB50AF01DFB1FBD10B510BD88
:1003000000F08AF91146FFF7F5FF07F081FE00F0D3
:10031000A8F903B4FFF7F2FF03BC00F0AFF9000047
:100320000A4880470A480047FEE7FEE7FEE7FEE787
:10033000FEE7FEE7FEE7FEE7FEE7FEE7FEE700007A
:1003400004480549054A064B7047000095620008BD
:1003500055020008C0090020C00F0020C00B00207B
:10036000C00B002053EA020C00F069802DE9F04B2D
:100370004FF00006002B1FBFB3FA83F503FA05F414
:1003800024FA05F65E4012BF1643B2FA82F502FA6D
:1003900005F4C5F120051EBF22FA05FC44EA0C0451
:1003A000203556EA044C4FEA144418BF641C4FF041
:1003B00000084FF00009904271EB030C39D300297B
:1003C00019BFB1FA81F701FA07F6B0FA80F700FA1F
:1003D00007F6C7F120071EBF20FA07FC46EA0C0605
:1003E0002037B6FBF4FCA7EB0507103F07F01F0B07
:1003F000CBF120062CFA06F60CFA0BFB44BFB346F1
:100400000026202FA4BF5E464FF0000B5BEA060CCF
:1004100008BF4FF0010B19EB0B0948EB0608ABFBCB
:10042000027C06FB02CC0BFB03CCC01B71EB0C0166
:10043000C1E70B46024641464846BDE8F08B13B57E
:10044000084318BF4FF0FF300146AFF30080BDE80E
:100450001C40704710B5431C02E010F8011B71B13D
:100460008107FAD14FF0013202C88C1A8C4314EA8A
:10047000C211F9D0C01A0A0603D0C01E10BDC01A9E
:1004800010BD0A0401D0801E10BD0902FCD0401E20
:1004900010BD032A40F2308010F0030C00F01580EC
:1004A00011F8013BBCF1020F624498BF11F801CB77
:1004B00000F8013B38BF11F8013BA2F1040298BFDC
:1004C00000F801CB38BF00F8013B11F0030300F046
:1004D0007180083AC0F0088051F8043B083A51F89E
:1004E00004CBA0E80810F5E7121D5CBF51F8043BEF
:1004F00040F8043BAFF30080D20724BF11F8013B62
:1005000011F801CB48BF11F8012B24BF00F8013BC3
:1005100000F801CB48BF00F8012B70474FF00002F4
:100520000429C0F0128010F0030C00F01B80CCF105
:10053000040CBCF1020F18BF00F8012BA8BF20F873
:10054000022BA1EB0C0100F00DB85FEAC17C24BFC7
:1005500000F8012B00F8012B48BF00F8012B704771
:100560004FF0000200B5134694469646203922BF4C
:10057000A0E80C50A0E80C50B1F12001BFF4F7AF97
:10058000090728BFA0E80C5048BF0CC05DF804EB79
:10059000890028BF40F8042B08BF704748BF20F8E7
:1005A000022B11F0804F18BF00F8012B70477047E5
:1005B0007047704710B5203AC0F00B80B1E8185072
:1005C000A0E81850B1E81850A0E81850203ABFF43D
:1005D000F5AF5FEA027C24BFB1E81850A0E81850DC
:1005E00044BF18C918C0BDE810405FEA827C24BF30
:1005F00051F8043B40F8043B08BF7047D20728BFBE
:1006000031F8023B48BF11F8012B28BF20F8023B0C
:1006100048BF00F8012B7047754600F02BF8AE4636
:1006200005006946534620F00700854618B020B5FE
:10063000FFF786FEBDE820404FF000064FF00007B0
:100640004FF000084FF0000BAC46ACE8C009ACE836
:10065000C009ACE8C009ACE8C00921F007018D462B
:10066000704710B50446AFF300802046BDE8104047
:10067000FFF74FBE0048704748000020014918208E
:10068000ABBEFEE726000200704700000146C06DC9
:10069000836D826D13F0500F08D0D20648BF00F072
:1006A0004BBC006D826E0846104700BF42F40071DB
:1006B000816501680B68CA681B0703D4910707D5D9
:1006C00000F036BC12F4406FFAD1C9688904F7D43F
:1006D000816D21F480718165816DC90448BF00F08E
:1006E00027BC816D41F00101816500F021BC000053
:1006F000C06D816D41F040018165C16D41F0040123
:10070000C16500F019BC0000C06D00F013BC000012
:1007100070B582B004460020019021688A68D20733
:1007200011D14FF6C076C7F6FF76886806F17F02D2
:1007300010420BD0A06D40F01000A065E06D40F0BD
:100740000100E065012002B070BD00BF8868304044
:1007500040F00100886048F20830C4F202200068CE
:10076000000221D401F0A6FD21680A68D20717D142
:10077000054602E00868C00712D18868C00704D1A6
:100780008868304040F00100886001F093FD401B14
:1007900021680328EED30868C007EBD1CAE700BF81
:1007A000002002B070BD00BF40F22400C2F2000081
:1007B000006842F663518009C0F23E51A0FB01017E
:1007C0008809022101EB4000019001980028C9D05E
:1007D00001980138019001980028C3D00198013890
:1007E000019001980028BDD001980138019001982E
:1007F0000028B7D001980138019001980028E7D16E
:10080000B0E7000000281CBF6FF0010070472DE921
:10081000F04186B040F68C40C4F2024002680024E9
:1008200042F0010202600268C4F2022402F00102F6
:100830000192019A026801AD42F001020260026871
:10084000022702F001020192019A02694FF00708A3
:1008500042F40032026100690E4600F4003001905B
:100860000198042001900120039020462946029718
:100870000497CDF8148001F053FC0820CDE901075E
:1008800020462946CDF8148001F04AFC40F2A440ED
:10089000C2F20000314605F01DFB002818BF6FF0C2
:1008A000030006B0BDE8F0817047000000EB400097
:1008B00040F23851C2F2000101EB800001F0F4BBBC
:1008C00010B586B040F68C42C4F20242136804466A
:1008D00043F004031360126802F0040001900198D1
:1008E0004FF40050019040F600004FF00202C4F2B5
:1008F00002200392049239B30021C1F21101029146
:1009000001A901F00DFC04EB440040F23851C2F2A1
:10091000000101EB80040D21C0F20061204601F0CE
:10092000BDFB40F659122046C0F60002002101F03E
:10093000E5FB18200F21002201F05EFD182001F0D8
:1009400049FD002006B010BD0021029101A901F06F
:10095000E7FB002006B010BD0020FFF7A5BF000098
:10096000FEE700002DE9F043D2F800C0D0F808E01F
:10097000002953D0BEF1000F4FF0000464D04FF6B1
:10098000FC7311EA03094FF000074FF0000300F079
:10099000B58005684FF6FC732B40BEF1020F4FF097
:1009A000010455D34B4553D04FF6FF7425EA040696
:1009B00005274FF6FC7800BF46EA030454F82C5094
:1009C000FC1E744505EA08054ED24D454CD046EA5A
:1009D000050353F82C30BC1E744503EA08031AD2F1
:1009E0004B4518D046EA030454F82C507C1E74453D
:1009F00005EA080538D24D4536D046EA050353F8D6
:100A00002C30774503EA080307F1040402D24B4572
:100A10002746D1D1043C1F462B466FE0BEF1000FA4
:100A20001AD004684FF6FC75BEF1010304EA05070D
:100A300016D04FF6FF75AC43AEF10205032D03F05F
:100A4000030813D230E000BF0027002356E000BFA8
:100A50001F46002352E000BF00230027002456E079
:100A60000124002353E000BF2F4647E023F0030595
:100A70004FF6FC7644EA070353F82C30043D03EAB2
:100A8000060343EA040353F82C3003EA060343EA5F
:100A9000040353F82C3003EA060344EA030757F82B
:100AA0002C7007EA0607E5D13D46B8F1000F24D0C7
:100AB00044EA050353F82C604FF6FC73B8F1010FBC
:100AC00006EA030604D1744637462B4616E000BFFB
:100AD00044EA060555F82C50B8F1020F03EA050365
:100AE00004D174461F46334608E000BF1C4354F847
:100AF0002C404FF6FC7504EA0507744639B14FF6F1
:100B0000FC7631408F421CBF0120BDE8F083408855
:100B1000946043EA004147EA00435160D36053F8D0
:100B20002C1029B14FF6FC730004194008431061E2
:100B30000020BDE8F0830000704700000020FFF7B0
:100B4000B5BE000072B600BFFEE7000040F22C40C8
:100B5000C2F2000001F060B9F0B581B0002200924D
:100B600090F85420012A03D10221084601B0F0BDBB
:100B70000123076880F85430BB685B0750D40B68CA
:100B800048F2083C012BC4F2022C0AD00226C0F223
:100B90003046B3420FD1CE680025C4F27F05AE4285
:100BA00009D14FF6C056CFF6FF765CF8065045F0F7
:100BB00001054CF806504E681F22C6F3012506F0C9
:100BC0001F0607EB8505C3F384632C6BB24024EA50
:100BD0000202B3401A432A63BA68BB6802F00402F7
:100BE00003F00803D21840F0BC800A6807F1140330
:100BF000C2F3406404268D6806EAD25E53F824608E
:100C0000C2F304540722A240B5F1004F26EA0206BF
:100C10000CD143F80E601A6842F000430EE000BFAA
:100C2000816D41F02001816501217BE105FA04F22B
:100C3000324343F80E201A6822F000437B61D1E969
:100C40000435FE68042B5FD13A6E3A6E0B68C2F32E
:100C5000846293FAA3F4B4FA84F5C3F3846E6FF359
:100C60001F532C46002B08BF7446A2424FF6FF7458
:100C7000C0F20F040CD13A6E22F000423A660A68C4
:100C800002EA0403C2F3846E92FAA2F2B2FA82F587
:100C90007A6E7A6E002BC2F384622E4608BF7646C7
:100CA000B2420CD17A6E22F000427A660A6802EAF9
:100CB0000403C2F3846E92FAA2F2B2FA82F5BA6E1B
:100CC000BA6E002BC2F384622E4608BF7646B2424B
:100CD0000CD1BA6E22F00042BA660A6802EA040336
:100CE000C2F3846E92FAA2F2B2FA82F5FA6EFA6E4A
:100CF000002B08BF7546C2F38462AA4231D1FA6E56
:100D000022F00042FA662CE0062202EA960207F17F
:100D10006004D1F800E054F8236005FA02F24FF2C3
:100D20000005C0F2FF3535400EF0F84632432A4345
:100D300042F0004244F823200A698B6954F822608B
:100D400026F08076334344F822300A690B7F54F84A
:100D50002260012B26F0007608BF06F1007644F8E9
:100D60002260BA680C68D20752D1CA68D7F8B0605E
:100D700023466FF31F5326EA030E4FF6FF7602F069
:100D80001805C0F20F0626FA05F5254045EA0E06BD
:100D90000025C4F27F05AA42C7F8B06038D18BB1F4
:100DA00094FAA4F2B2FA82F2013202F01E03092B85
:100DB00002F01F030FD8012203EB43069A4042EAD8
:100DC000065315E0012202EB946202F01E030A2B87
:100DD00002F01F03EFD303EB43020025CFF620659B
:100DE000012605EB025206FA03F31A4342F00073A0
:100DF000C3F34062C3F3045307EB82028E68556964
:100E000007249C40A54306FA03F32B4353610C6867
:100E10000021C8F208010C4200F08380DCF8005089
:100E20000021CCF221318C4205F0E07108BF15F4AD
:100E3000000215D00022C4F2293294424AD1002285
:100E4000B2EB116F46D1ACF50272974269D1DCF872
:100E5000002022F0E072114341F080715FE000BF9A
:100E6000ACF5427297425CD1DCF8002022F0E072CF
:100E7000114341F40001CCF8001040F22401C2F209
:100E80000001096842F663528909C0F23E52A1FB93
:100E900002129109022202EB4101009100990029FE
:100EA0003FD00099013900910099D1B300990139DF
:100EB00000910099A9B3009901390091009981B37B
:100EC000009901390091009900294FF00001E8D103
:100ED00028E000BF0022CCF25272944208BF15F401
:100EE000800211D0ACF542718F424FF0000119D051
:100EF0000022C4F25A72944214D1D7F8C81041F0BB
:100F00000101C7F8C8100CE0ACF54272974208D155
:100F1000DCF8002022F0E072114341F48001CCF8AB
:100F200000100021002280F85420084601B0F0BDD6
:100F3000704700007047000070470000B0B582B0F5
:100F400000210028019155D0816D39B9044600F087
:100F5000F3F820460021E16584F854100268916896
:100F600089004FF6C071C5F6FF7102D593680B403A
:100F700093609368DB002ED4936801F1805119408F
:100F800041F08051916040F22401C2F200010968F1
:100F900042F663538909C0F23E53A1FB031399093A
:100FA000022303EB410101910199A1B1019901399A
:100FB0000191019979B1019901390191019951B1D9
:100FC000019901390191019929B1019901390191E1
:100FD00001990029EAD19168C90011D4816D4FF0BF
:100FE000010E41F010018165C16D41F00101C16543
:100FF00008E000BF4FF0010E704602B0B0BD00BF68
:101000004FF0000E9368846D03F0040304F01004A5
:101010001B19836D72D123F4817302338365936846
:10102000DB071AD148F2083C4FF600544FF6006334
:10103000C4F2022CCFF6FF74CFF6FF735CF80440C5
:101040005CF803302343DB0707D14368DCF800403A
:1010500024F47C142343CCF80030437E846BD0E925
:1010600002C144EA433390F82040194341EA0C019D
:1010700041EA0443012C06D1416A0024CFF6FE74F4
:1010800004EB41410B43846A24B1C16A04F47874CF
:1010900021430B43D16844F20704CFF6F07421409A
:1010A0001943D1601169036B21F04061194311614B
:1010B000916809072DD490F83430017E5B0090F8D8
:1010C0003CC043EA8131D36844F20204A34319438C
:1010D000D1601369BCF1010F18D140F2FD7123EA10
:1010E000010CD0E91034D0E9121543EA0C03234374
:1010F0001943294341F001030AE000BF43F0100205
:101100004FF0010E8265704602B0B0BD23F00103BE
:1011100013610169136B012923F00F0302BFC16939
:1011200001390B431363826D012161F30102826572
:10113000704602B0B0BD0000F0B5D5B004466846B8
:10114000002600250830C8215496CDE95266CDE925
:101150005066C4F20225FFF703FA206805F5004146
:10116000884201D055B0F0BD4FF4001000906846A1
:10117000019602F0FFFA002818BFFFF7E3FC40F6E3
:101180008C40C4F202400168012641F48061016094
:101190000168002701F4806135913599016841F0BB
:1011A00001010160006850A900F0010035903598F8
:1011B0000320519028465096529700F0B1FF21200D
:1011C00040F2DC11CDE9350735A8C2F20001CDE9C6
:1011D0003777CDE93977CDE93B77CDE93E6646975C
:1011E000CDE94077CDE94277449700F0FBF800283D
:1011F00018BFFFF7A7FC40F2C41040F2DC12C2F2A5
:101200000000C2F20002002100F0DEFB002818BF3F
:10121000FFF798FC40F2C410C2F2000000F0E6FCB8
:10122000002818BFFFF78EFC40F22C405021C2F27C
:101230000000C4F20201016000218122C0E90E1108
:10124000C0E91011826400F033FA002818BFFFF7DC
:1012500079FC40F22C45C2F2000540F2C411C2F202
:101260000001284600F046FC002818BFFFF76AFC82
:10127000284610212565EC6500F0B0FD002818BF58
:10128000FFF760FC55B0F0BD2DE9F0419CB048F28D
:101290000017C4F20227D7F808320668B668760746
:1012A00003D490F85460012E04D102201CB0BDE894
:1012B000F08100BF03F01F040123092C80F8543093
:1012C00056D8A34040F22126334251D088461546D5
:1012D0000646FFF71DFA38B1002086F854000120B9
:1012E0001CB0BDE8F08100BF3168B06D40F60173FD
:1012F0009843324600F58070B0650CB1B94203D016
:10130000906D20F480109065906D40F28D64C00463
:101310004FF0000044BFD06D20F00600D065106D86
:10132000C0F6000440F20977046640F2F164C0F6AA
:101330000007C0F600044FF0000CC0E919741C2728
:101340000F6082F854C04A682B4642F010024A608F
:10135000CA6842F00102CA6090F8502012060FD409
:101360008269012A1ED0022A08BF9D001BE000BF2F
:10137000002180F8541001201CB0BDE8F08100BFAE
:10138000406F0028ABD001680029A8D001A800F068
:10139000E3F80028A3D10798012815D0022808BF38
:1013A000AD0012E05D00403142462B4600F008FEE1
:1013B00031684FF6C0738A68C7F6FF731A4004326B
:1013C0008A601CB0BDE8F0816D003146086D096887
:1013D000426F40311268C2E90251C2F8108000F039
:1013E00091FCE5E700284FF0010218BF002901D168
:1013F00010467047B0B5D0E904C2C369D0F818E010
:101400001A43C36B1A4342EA0C0242EA0E020A6014
:1014100003789B0616D5D0E909C34FF07C75D0F848
:101420002CE0846B05EB03534FF47C7505EB0C1536
:1014300003F07C7344EA0E0405F47C7523432B43CC
:101440001A430A604268036B40F2FF252A401A43A0
:101450004A60C368B3F5007F05D0B3F5806F04D14F
:101460000578AD0601D51A434A60436B1A434A60BA
:10147000436C43B1856C046C05F03F0544EA0545B7
:101480002A431A434A60B0F8683040F2000C8B607F
:101490000278C0F2FF7C920722D5C56C4FF08054D1
:1014A0000CEB054505EA0C052B438B60056D04EA42
:1014B000D5054FF000542B448B60456D04EA95052B
:1014C0004FF080442B448B60856D04EA55052B4416
:1014D0008B60C56DB5F1FF3FDCBF03F100438B604E
:1014E000036ECB60436E0B6103789B0702D4142319
:1014F00023E000BF036D0CF1C052002B48BF5B42DC
:101500006FF35F334B61456D2C04002D48BF05FB25
:1015100002F422401A434A61836D0CF17844002B97
:1015200048BF5B429AB28A61C36D1D04002B48BF5D
:1015300003FB04F52A431C238A610022CA50006879
:1015400083074FF4E06358BF4FF4A0631843086269
:10155000BDE8B0401046704700284FF0010218BFA8
:10156000002901D11046704791F820C042F20002D4
:10157000C0F800C00B68C0F6004203F00803036126
:101580000B6803F4002343610B6803F003038361DA
:101590000B6803F44033C3610B68C3F305130133D5
:1015A00043620B68C3F30553013383620B6803F096
:1015B0004023C3620B681A4082630A6802F4C05277
:1015C000C2634B689A0509D4DAB242604A7952077D
:1015D00054BF00224FF4806203E000BF4FF400725A
:1015E0004260C2604A685FEA8C7302F40062826003
:1015F0004A6802F4404202644A6802F0407242645F
:10160000CA8802F03F0282644A6802F040420263E4
:101610000A8982660CD40122C264CA68026609691A
:1016200000224166C0E91422C0E916221046704724
:1016300080B54A896FF3DF220132C264CA6802664C
:101640000A6942664B696FF35F330365B1F816C0F0
:101650006FF35F3CC0F854C0D1F808E05FEACE02F7
:1016600003D55A420265D1F808E05FEA8E0244BF12
:10167000CCF100024265B1F818E0C0F858E08A6980
:101680004FEA124CC0F85CC08A68530003D5CEF113
:10169000000282658A68B2F1FF3FBDE88040C4BFA6
:1016A00000207047CCF10001C165002070470000A8
:1016B000B0B5044600F0FEFD002C04BF0120B0BD13
:1016C00000210546206884F84C10022184F854104B
:1016D000416941F00601416120684169C9070BD0A9
:1016E00000F0E8FD401B0528F6D901200322102157
:1016F000A16584F85420B0BDD4E90E124F23C5F281
:101700000203984242EA010240F24F31C5F202015F
:101710001CDC41F24F03C4F20203984232DC40F277
:101720004F23C4F2020398425ADC40F24F13C4F232
:101730000203984200F394805023C4F202039842BB
:1017400000F0E880D023C4F20203E1E041F24F034D
:10175000C5F2020398422DDC40F24F23C5F202038A
:1017600098424FDC40F24F13C5F20203984200F357
:1017700083805023C5F20203984200F0CB80D0232F
:10178000C4E000BF41F24F23C4F20203984245DC9B
:1017900041F24F13C4F20203984277DC41F2500346
:1017A000C4F20203984200F0B58041F2D003C4F2C3
:1017B0000203ADE041F24F23C5F2020398423FDC41
:1017C00041F24F13C5F2020398426BDC41F2500321
:1017D000C5F20203984200F09D8041F2D00395E0EB
:1017E00040F24F33C4F20203984265DC40F25023CA
:1017F000C4F20203984200F08D8040F2D023C4F27C
:10180000020385E0884263DC40F25023C5F2020304
:10181000984200F07F8040F2D02377E041F24F33CE
:10182000C4F2020398425DDC41F25023C4F2020389
:1018300098426FD041F2D023C4F2020368E000BFA7
:1018400041F24F33C5F20203984257DC41F2502374
:10185000C5F2020398425DD041F2D02356E000BFAA
:1018600040F25013C4F20203984253D040F2D01316
:10187000C4F202034CE000BF40F25013C5F2020371
:10188000984247D040F2D01340E000BF41F25013DD
:10189000C4F2020398423DD041F2D013C4F20203D5
:1018A00036E000BF41F25013C5F20203984231D036
:1018B00041F2D0132AE000BF40F25033C4F20203D9
:1018C000984227D040F2D033C4F2020320E000BF98
:1018D00040F25033C5F2020398421BD040F2D0339D
:1018E00014E000BF41F25033C4F20203984211D019
:1018F00041F2D033C4F202030AE000BF41F2D03318
:10190000C5F20203984205D041F25033C5F20203FA
:10191000984201D1236C1A434369884223F443035C
:1019200042EA030242614FF000020264636C4364C6
:101930008264C264026511DC41F24F31C4F20201DB
:1019400088421BDC40F25031C4F2020188422DD0A3
:1019500040F2D031C4F2020126E000BF41F24F3123
:10196000C5F20201884215DC40F25031C5F2020195
:1019700088421BD040F2D03114E000BF41F2503118
:10198000C4F20201884211D041F2D031C4F2020106
:101990000AE000BF41F2D031C5F20201884205D011
:1019A00041F25031C5F20201884202D10021416565
:1019B00081650021C167A06C012220650020A1651E
:1019C00084F85420B0BD000000284FF0010318BF78
:1019D000002A01D1184670474369012B04D1042124
:1019E00001230161184670472DE9F04186B0036874
:1019F00042EA01070E461F43002908BF1646002B86
:101A000018BF1E467740B7F5803F09D253B193F80F
:101A1000206051B191F82070BE4206D028E000BF8E
:101A2000052126E029B191F8206092F82070BE428D
:101A30001ED10227077300270761176A00247E085A
:101A4000CFF6010466F3596407F0020766F39A645F
:101A500007F10505A3B1E9B1904601AA0195064633
:101A60000F46FEF77FFFE8B10620306102E000BFBD
:101A700004210161012306B0BDE8F041184670471A
:101A8000E1B14FF6FC731A402243016041F8252072
:101A9000022124E04FF6FC711940214342F8251041
:101AA00002601AE00399B268304691420AD1416857
:101AB00061B14FF6FC721140214305E00260012143
:101AC0000DE000BF57F8251048F825104FF6FC71BF
:101AD00001EA0801214347F825108168013181603E
:101AE000002301210361017306B0BDE8F0411846EF
:101AF0007047000000284FF0010218BF002901D1F3
:101B000010467047D0F850C0BCF1000FF8D090F8E4
:101B1000543090F85420022A18BF052B06D14021DA
:101B20008165002180F84C10012070470A7B022A51
:101B300004D101220A611046704700BF036840F2D9
:101B40004F32C5F20202934210DC41F24F32C4F22E
:101B5000020293421ADC40F25032C4F20202934273
:101B60002CD040F2D032C4F2020225E041F24F32D2
:101B7000C5F20202934215DC40F25032C5F2020275
:101B800093421BD040F2D03214E000BF41F25032F9
:101B9000C4F20202934211D041F2D032C4F20202E6
:101BA0000AE000BF41F25032C5F20202934205D072
:101BB00041F2D032C5F2020293420DD14B68BCF122
:101BC000810F03D123B1416700207047002BFAD069
:101BD00004200861012070470A6892F820209207CB
:101BE000ECD503200861012070470000002804BFE5
:101BF00001207047016839B142684AB18A4204BF86
:101C00000020704707E000BF0221016101207047FA
:101C10004269012A04D1042101610120704700BFFB
:101C2000F0B502220273002202610A6A40F2000E3D
:101C30005308CFF6010E63F3596E02F00202856875
:101C400063F39A6E531D4FF6FC72002D01EA020CED
:101C500047D0012D02D1654643E000BF4FF6FF7229
:101C60006E1EAC1E21EA0202032C06F0030401D210
:101C700065461EE026F003064FF6FC77654600BF7A
:101C8000154355F82350043E05EA070545EA0205C9
:101C900055F8235005EA070545EA020555F8235093
:101CA00005EA070545EA020555F8235005EA070548
:101CB000E6D1B4B1154355F823504FF6FC76012C0C
:101CC00005EA06050DD0154355F82350022C05EA08
:101CD000060506D02A4352F823204FF6FC7402EA88
:101CE00004054FF6FF7221EA02022A434EEA0C076E
:101CF0004160002142F8237001610121017300203D
:101D0000F0BD000000285DD0436F002B5AD0016D5C
:101D1000002957D080B590F85410D0F800E0012980
:101D2000DEF814C004D002294ED11CF480314BD00F
:101D300090F8541001293AD190F84C1001294FF035
:101D400002013BD0012280F84C2080F85410197316
:101D5000002181651961DEF8141041F4BA41CEF812
:101D60001410416E29B1DEF8141041F40071CEF860
:101D70001410006F28B1DEF8140040F40050CEF8C3
:101D8000140018680022016ACFF60102490861F3C5
:101D9000596261F39A624FF6FF7120EA0101CEF8B1
:101DA00000104FF6FC7108401044CEF87C00DEF8BD
:101DB0001400002140F00100CEF81400BDE880407E
:101DC000084670470120704740218165002180F856
:101DD0004C100121BDE880400846704702460028AB
:101DE0004FF0010008BF7047CB0612D5136840F6CC
:101DF000FF7223EA020203F57B63C3F3C41301F00D
:101E0000110198401129516814BF21EA00000843CC
:101E1000506000207047000010B504680C23214674
:101E200004F57B6263F30B01C2F3C4120968D1406D
:101E3000C9074BD02169490544BF61695FEA415137
:101E400046D42169090544BF61695FEA015147D45D
:101E50002169C90444BF61695FEAC14148D421696D
:101E6000490444BF61695FEA414149D42169890558
:101E700044BF61695FEA81514AD42169890444BF42
:101E800061695FEA81414FD42169C90544BF616935
:101E90005FEAC15164D4816DC1B101684A6942F001
:101EA00002024A61012180F8541090F85020120675
:101EB00044BF426F1173816E0022002980F84C20CC
:101EC00008BF10BDBDE81040084700BF10BD00BFEF
:101ED0004FF48061E160816D41F001018165B0E7FF
:101EE0004FF40061E160816D41F002018165AFE76F
:101EF0004FF48051E160816D41F004018165AEE7EE
:101F00004FF48041E160816D41F008018165ADE7EA
:101F10004FF40071E160426E002AAED00446904753
:101F200020462468A9E700BF4FF40051E16090F813
:101F3000541004291ED16169012221F4005161610C
:101F4000616941F00201616180F8542090F85010FD
:101F5000090603D5416F0A730021A164C16EABE786
:101F600090F85010090611D4A16CD9B900F15402AF
:101F700016E000BF052180F85410026F002A3FF4DC
:101F800083AF04469047204624687DE7E16F49B956
:101F9000A16C39B9012180F85410416F01F10C0294
:101FA000012111704FF44071E160016E002200299F
:101FB00080F84C203FF46FAF0446884720466AE71C
:101FC00020B1D0F850C0BCF1000F01D00120704703
:101FD00090F84CC0BCF1010F04BF022070474FF0D5
:101FE000010C80F84CC090F854C0BCF1010F39D1FD
:101FF00010B54FF0020C80F854C04FF0000CC0F840
:1020000058C0D0F800C0D0F864E0DCF84840BEF119
:10201000000F63F30F044FF4FE43CCF84840CCF8B4
:102020000C30CCF84C10CCF85020DCF8141041F4F3
:10203000BA41CCF8141005D0DCF8141041F400714A
:10204000CCF81410006F28B1DCF8140040F40050F4
:10205000CCF81400DCF8140040F00100CCF81400B7
:10206000002010BD40218165002180F84C10012026
:1020700070470000B0B5044600F01CF9054640F278
:102080000000C2F200000078611C18BF044400BFC9
:1020900000F010F9401BA042FAD3B0BD00280EBFDB
:1020A0000120016000207047F0B581B0044600684F
:1020B000082202EA503542F20C07C4F2024700F04F
:1020C0001F01012057F8252000FA01F6164205D01D
:1020D00047F825606068002818BF8047381D50F811
:1020E0002510314208D040F82560A06820B101B029
:1020F000BDE8F040004700BF01B0F0BD022906D0A6
:10210000012909D000291CBF012070474260082125
:1021100042500020704700BF042142500020704709
:102120000A68002A08BF70472DE9F04F83B000F11C
:102130002003019347F67F73C0F22F0303EA902335
:102140004FF0000A4FF0010B00274FF0000C002564
:1021500000930BE00A68013532FA05F30CF1040C28
:1021600007F102070AF1080A00F09A800BFA05F954
:1021700012EA0902EED0D1F80480029248F010066B
:10218000122E1BD16FF0030202EA5506DDF804B0EF
:102190000CF01C025BF80640D1F810800F2303FA04
:1021A00002FE08F00F0324EA0E0403FA02F22243AF
:1021B0004BF80620D1F804804FF0010B026803238E
:1021C000BB4008F0030EDC439A430EFA07F31A43B0
:1021D000B8F1120F02605BD80BFA08F212F0061F7A
:1021E00056D08368D1E902262340BE403343836042
:1021F00043684FEA181623EA0903AE4033434360AD
:10220000C368BA4023401A43C260029C5FEAC80216
:10221000A0D542F2000E25F00302C4F2024E724431
:10222000D2F860800AF018060F23B34028EA0308AA
:10223000009B03FA06F648EA06031366DEF8008000
:102240004B6848EA0406DA0258BF28EA0406CEF8CA
:102250000060DEF804809A0248EA040658BF28EAC3
:102260000406CEF80460DEF884809A0348EA040687
:1022700058BF28EA0406CEF88460DEF88020DB032D
:1022800042EA040658BF22EA0406CEF8806061E7FD
:102290008A68BEF1030F08BF012AB1D1B5E700BFBC
:1022A00003B0BDE8F04F70471823002A08BF282369
:1022B000C150704740F6BC00C2F200000068704791
:1022C00040F2000040F6BC01C2F20000C2F2000180
:1022D00000780A68104408607047000080B5032049
:1022E00000F0B6F802F01EF940F62041C4F20241B7
:1022F00009684AF6501201F00F01C0F60002515C65
:10230000C84040F22401C2F200010860042003F03A
:10231000B1F90F2000F008F800281CBF012080BD93
:1023200000F056F8002080BDB0B540F20005C2F2C2
:1023300000052978E1B304464EF21000CEF2000009
:102340000068400710D403F0E3F9022824D00128E4
:102350001AD078BB40F22400C2F20000006829784D
:102360004FF4FA5207E000BF40F22400C2F200002E
:1023700000684FF47A72B2FBF1F1B0FBF1F003F0B8
:10238000B5F9A8B91BE000BF28784FF47A71B1FB0A
:10239000F0F04FF4FA4106E028784FF47A71B1FB7F
:1023A000F0F04FF40041B1FBF0F003F09FF930B1D1
:1023B0000120B0BD002003F099F90028F8D14FF0BA
:1023C000FF302146002200F017F800206C60B0BDFD
:1023D00070470000002848BF704700F01F0101222D
:1023E000C0F34A1002FA01F14EF20012CEF20002DE
:1023F00042F820107047000010B54EF60C5CCEF28B
:10240000000CDCF80030C3F3022E8EF00704042C1D
:1024100028BF0424BEF103034FF0FF3E38BF002362
:102420000EFA04F4A14399400EFA03F39A431143C0
:1024300000F00F0200F160430901043A03F5644320
:102440006244002848BF02F10C03197010BD00005F
:102450004EF60C51CEF200010A684FF6FF031A4007
:1024600060F30A2242F0806040F0FD70086070471F
:1024700001220168C0F8D822002280F8CC22486DE1
:1024800040F001004865486D40F0020200204A65B6
:1024900070470000002804BF01207047F0B581B0EC
:1024A000044690F8950228B9002084F8940220464A
:1024B00000F01CF9032084F89502206804F06EFCFB
:1024C00094E80F00267C009604F03CFC002840F0C5
:1024D000F4802068002104F06BFC002840F0ED80BF
:1024E00094F804E0BEF1000F00F0E0800EF0030C61
:1024F000BEF1040F4FF0000238D30EF0FC03A4F13C
:10250000A0000321012500BFCE1E80F8B4608E1EFE
:1025100080F8DC604E1E80F8046180F82C110E1DDE
:10252000013180F8B55080F8B720C0E93122C0F8F9
:10253000CC2080F8DD5080F8DF20C0E93B22C0F8D5
:10254000F42080F8055180F80721C0E94522C0F841
:102550001C2180F82D5180F82F21C0E94F22C0F8AE
:102560004421A03099423146CED1F21EBCF1000F79
:102570002ED002EB820104F1140000EBC10501230F
:1025800000F831200021BCF1010F6B70E970C5E942
:102590000411A9611CD0551C05EB8506BCF1020F86
:1025A00000EBC60700F836507B70F970C7E90411DC
:1025B000B9610DD0911C01EB8102012500EBC20332
:1025C00000F8321000205D70D870C3E904009861F3
:1025D000BEF1000F6AD0BEF1040F4FF0000235D3F8
:1025E0000EF0FC0003212346CF1E83F854718F1E8A
:1025F00083F87C714F1E83F8CC110D1D013183F8D7
:10260000552183F85721C3E95922C3F86C2183F877
:102610007D2183F87F21C3E96322C3F8942183F8E5
:10262000A52183F8A47183F8A721C3E96D22C3F81B
:10263000BC2183F8CD2183F8CF21C3E97722C3F8E9
:10264000E421A03381422946CED1EA1EBCF1000F1D
:102650002CD002EB820304F5AA7000EBC307002123
:10266000BCF1010F797000F83320F970C7E904114B
:10267000B9611BD0531C03EB8307BCF1020F00EBC5
:10268000C70600F837307170F170C6E90411B16106
:102690000CD0911C01EB8102002700EBC20300F873
:1026A00032105F70DF70C3E904779F6194E80F0018
:1026B000277C009704F062FB30B1022084F8950279
:1026C000012001B0F0BD00BF00206074012084F83B
:1026D0009502207B012804BF2046FFF7C9FE206831
:1026E00004F044FB002001B0F0BD000010B5B6B00E
:1026F000044602A80830C821FDF732FF206846F2E0
:102700000001C4F20101884202D036B010BD00BF02
:1027100010200390002002903020339002A801F096
:1027200029F8002818BFFEF70DFA00F00FF840F660
:10273000A440C4F20240016841F080710160006869
:1027400000F080700190019836B010BD40F638005E
:10275000C4F20240016841F000710160704700005E
:1027600040F67441C4F202410A6842F080720A6085
:102770000A6822F080720A6090E80E101143194333
:10278000026941EA0C0141EA024146F20002C4F248
:10279000000251601168406921F47C5141EA002037
:1027A0001060106840F060001060704710B540F68F
:1027B000284CC4F2024CDCF80CE0DCF80010DCF829
:1027C0000020C2F30523DCF80020DCF81040DBB366
:1027D000E408D20604EAE27201F003016FF35F320B
:1027E00000EE102A0329B8EE400A6FF35F2E37D0AF
:1027F00002292FD001295CF8281C49F20002C1F3FC
:10280000C101C0F2D03222FA01F101EE101A02EE3B
:10281000103AB8EE411AB8EE422A9FED4F3A81EED7
:10282000021A02EE10EA20EE030AB8EE422A30EE57
:10283000020AB7EE002A30EE022A5CF8281C22EECB
:10284000010A89012CD527E00021C0E9001181602F
:1028500010BD00BF01EE103A9FED402A04E000BF1A
:1028600001EE103A9FED3B2AB8EE411A82EE012AA2
:1028700001EE10EA9FED383AB8EE411A20EE030A55
:1028800030EE010AB7EE001A30EE011A5CF8281C8F
:1028900022EE010A890103D5DCF80010C90307D430
:1028A000002101605CF8281C890118D41BE000BFDE
:1028B000DCF80C10B7EE002AC1F3462101EE101A25
:1028C000B8EE411A31EE021A80EE011ABCEEC11ABE
:1028D00011EE101A01605CF8281C890103D5DCF8A0
:1028E0000010890302D4002112E000BFDCF80C10B4
:1028F000B7EE002AC1F3064101EE101AB8EE411AF4
:1029000031EE021A80EE011ABCEEC11A11EE101A55
:1029100041605CF8281C890144BFDCF800105FEAC4
:10292000413103D40021816010BD00BFDCF80C10E0
:10293000B7EE002AC1F3066101EE101AB8EE411A93
:1029400031EE021A80EE010ABCEEC00A10EE101A37
:10295000816010BD20BCBE4B000000390024744AC9
:1029600010B540F62C4CC4F2024CDCF810E0DCF858
:102970000010DCF80020C2F30523DCF80020DCF8AE
:102980001440DBB3E408D20604EAE27201F003016A
:102990006FF35F3200EE102A0329B8EE400A6FF39E
:1029A0005F2E37D002292FD001295CF82C1C49F268
:1029B0000002C1F3C101C0F2D03222FA01F101EEEE
:1029C000101A02EE103AB8EE411AB8EE422A9FED04
:1029D0004F3A81EE021A02EE10EA20EE030AB8EE38
:1029E000422A30EE020AB7EE002A30EE022A5CF8E4
:1029F0002C1C22EE010A09012CD527E00021C0E998
:102A00000011816010BD00BF01EE103A9FED402A19
:102A100004E000BF01EE103A9FED3B2AB8EE411AE8
:102A200082EE012A01EE10EA9FED383AB8EE411A23
:102A300020EE030A30EE010AB7EE001A30EE011A5A
:102A40005CF82C1C22EE010A090103D5DCF8001009
:102A5000C90307D4002101605CF82C1C090118D4BB
:102A60001BE000BFDCF81010B7EE002AC1F34621CE
:102A700001EE101AB8EE411A31EE021A80EE011A78
:102A8000BCEEC11A11EE101A01605CF82C1C090191
:102A900003D5DCF80010890302D4002112E000BF46
:102AA000DCF81010B7EE002AC1F3064101EE101A4F
:102AB000B8EE411A31EE021A80EE011ABCEEC11ACC
:102AC00011EE101A41605CF82C1C090144BFDCF8BF
:102AD00000105FEA413103D40021816010BD00BFC6
:102AE000DCF81010B7EE002AC1F3066101EE101AEF
:102AF000B8EE411A31EE021A80EE010ABCEEC00AAD
:102B000010EE101A816010BD20BCBE4B00000039D1
:102B10000024744A10B540F6304CC4F2024CDCF884
:102B200014E0DCF80010DCF80020C2F30523DCF828
:102B30000020DCF81840DBB3E408D20604EAE272B5
:102B400001F003016FF35F3200EE102A0329B8EEA3
:102B5000400A6FF35F2E37D002292FD001295CF88D
:102B6000301C49F20002C1F3C101C0F2D03222FA96
:102B700001F101EE101A02EE103AB8EE411AB8EE69
:102B8000422A9FED4F3A81EE021A02EE10EA20EE41
:102B9000030AB8EE422A30EE020AB7EE002A30EEFF
:102BA000022A5CF8301C22EE010A89002CD527E0AD
:102BB0000021C0E90011816010BD00BF01EE103A94
:102BC0009FED402A04E000BF01EE103A9FED3B2A42
:102BD000B8EE411A82EE012A01EE10EA9FED383A72
:102BE000B8EE411A20EE030A30EE010AB7EE001AE1
:102BF00030EE011A5CF8301C22EE010A890003D580
:102C0000DCF80010C90307D4002101605CF8301C17
:102C1000890018D41BE000BFDCF81410B7EE002ABE
:102C2000C1F3462101EE101AB8EE411A31EE021A34
:102C300080EE011ABCEEC11A11EE101A01605CF8A8
:102C4000301C890003D5DCF80010890302D4002170
:102C500012E000BFDCF81410B7EE002AC1F3064101
:102C600001EE101AB8EE411A31EE021A80EE011A86
:102C7000BCEEC11A11EE101A41605CF8301C8900DC
:102C800044BFDCF800105FEA413103D400218160C9
:102C900010BD00BFDCF81410B7EE002AC1F30661C6
:102CA00001EE101AB8EE411A31EE021A80EE010A56
:102CB000BCEEC00A10EE101A816010BD20BCBE4BE5
:102CC000000000390024744A80B584B04FF6FF73C9
:102CD0000246C0F23F0300209B1A70EB0103C0F2D2
:102CE000618041F6FF739B1A70EB0103C0F2908084
:102CF000B2F1010E61F1000CDEF11F034FF0000391
:102D000073EB0C03C0F0CE81DFE81EF02000A602BA
:102D10009A03EA019A039A039A0346029A039A03D2
:102D20009A039A039A039A039A0376029A039A03E0
:102D30009A039A039A039A039A039A039A039A03AB
:102D40009A039A039A039A039A03160240F60040E4
:102D5000C4F20240D0F8D81011F0070100F000844E
:102D60000268012903D112F0006240F01D8402685C
:102D7000022903D112F0005240F0D38303680268A5
:102D8000032903D113F0020340F0A984042903D1DD
:102D900012F4007240F0D584D0F8F000052900F05C
:102DA00063BC00BF6FF040439B1A70EB01036FDA06
:102DB000072940F3CD80B1F5007F80F2218181F0B9
:102DC0000803134300F0EC8281F01001114340F03E
:102DD000378340F60040C4F20240D0F8E41001F01E
:102DE0003001102900F0DA830268202903D112F0A3
:102DF000005240F09683006810F400501CBF46F665
:102E00000040C0F2DC20302918BF002018E300BFCA
:102E10004FF6FF739B1A4FF0000C7CEB010380F21E
:102E2000BB804FF6FF73C0F203039B1A7CEB0103D8
:102E3000C0F2028182F480330B4300F0E58282F419
:102E40000032114340F0FC8240F60040C4F20240E0
:102E5000D0F8DC10C1F30221052900F2AB83DFE8D2
:102E600011F0390105037903CD03C303070000BF47
:102E7000D0F8E810036802689B0701F0404102D5D2
:102E8000002900F02C84920500F1368400F037BC54
:102E90006FF078439B1A4FF000038B4124DB82F4E0
:102EA00080030B4300F0568282F000730B4300F066
:102EB000F98182F08062114340F0C28240F6004006
:102EC000C4F20240D0F8E810026801F03001920428
:102ED00040F14C83002940F0498346F60040C0F29F
:102EE000DC2004B080BD00BF82F000630B4300F023
:102EF0003B8282F080530B4300F0068282F0005246
:102F0000114340F09D8240F60041C4F20241D1F8E5
:102F1000E000C0F38212042A00F24C8348F2000061
:102F2000C0F2BB00DFE812F03A03A20236028C02C4
:102F3000060000BFD1F8E8200B6808689B0702F084
:102F4000404240F10282002A00F0A083FDE100BF70
:102F500082F080430B4300F0CB8281F002031343E5
:102F600000F08A8281F00401114340F0698240F64A
:102F70000040C4F20240D0F8E8100068800301F479
:102F8000407040F10583002840F0028347F640007E
:102F9000C0F27D1004B080BD82F400530B4300F0FA
:102FA000C78282F480430B4300F07E8282F40042A9
:102FB000114340F0458240F60040C4F20240D0F890
:102FC000E41001F44011B1F5801F00F0C382002924
:102FD00000F0808002680068B1F5001F03D112F094
:102FE000020240F0538310F400701CBF40F6001042
:102FF000C0F23D00B1F5401F18BF002004B080BDF5
:1030000081F40073134300F0E78181F48051114390
:1030100040F0168240F60041C4F20241D1F8E400CB
:1030200000F04060B0F1806F00F09482002851D031
:103030000A68B0F1006FF9E182F480230B4300F0DD
:10304000018282F40012114340F0FA8140F6004000
:10305000C4F20240D0F8E81001F00701022900F0A4
:103060001D82012900F0DC82002900F01182026833
:10307000032902D112F4003288D1026800680429C1
:1030800003D112F0020240F0018310F400701CBF63
:1030900040F60010C0F23D00052918BF002004B022
:1030A00080BD00BF82F48052114340F0C98140F6D8
:1030B0000040C4F20240D0F8E01001F0E061B1F14C
:1030C000007F00F02E82B1F1807F00F06D82002938
:1030D00040F0B88204B0BDE8804001F0FFB900BF05
:1030E00040F60040C4F20240D0F8D81011F4E0716C
:1030F00000F02A820268402903D112F0006240F0F9
:1031000053820268802903D112F0005240F00982F4
:1031100003680268C02903D113F0020340F0DF8284
:10312000B1F5807F03D112F4007240F00A83D0F829
:10313000F000B1F5A07F97E240F60040C4F20240F3
:10314000D0F8D81011F4603100F0FE810268B1F5BA
:10315000004F03D112F0006240F026820268B1F500
:10316000803F03D112F0005240F0DB810368026817
:10317000B1F5C03F03D113F0020340F0B082B1F5C6
:10318000003F03D112F4007240F0DB82D0F8F0006F
:10319000B1F5203F68E200BF40F60040C4F20240B3
:1031A000D0F8D81011F4606100F0CE810268B1F55A
:1031B000007F03D112F0006240F0F6810268B1F5A1
:1031C000806F03D112F0005240F0AB8103680268B7
:1031D000B1F5C06F03D113F0020340F08082B1F566
:1031E000006F03D112F4007240F0AB82D0F8F0000F
:1031F000B1F5206F38E200BF40F60040C4F2024053
:10320000D0F8D81011F4E04100F09E810268B1F5C9
:10321000805F03D112F0006240F0C6810268B1F510
:10322000005F03D112F0005240F07B810368026816
:10323000B1F5405F03D113F0020340F05082B1F5C5
:10324000804F03D112F4007240F07B82D0F8F0007E
:10325000B1F5A04F08E200BF40F60040C4F20240C2
:10326000D0F8D81011F0380100F06E8102680829FA
:1032700003D112F0006240F09781102900F05181D3
:1032800003680268182903D113F0020340F0278273
:10329000202903D112F4007240F05382D0F8F000DC
:1032A0002829E1E140F60041C4F20241D1F8F000E2
:1032B000D1F8F020920700F4407203D5B2F5807F78
:1032C00000F06181D1F8F000000103D5B2F5007F74
:1032D00000F07D80086880034FF0000040F1B0806E
:1032E000B2F5407F40F0AC80C86910F4785F00F020
:1032F0006181C86947F64001C0F30520C0F27D1125
:10330000B1FBF0F004B080BD40F60041C4F20241D0
:10331000D1F8E000C0F3C202042A00F24B8148F267
:103320000000C0F2BB00DFE812F03901A100350057
:103330008B000500D1F8E8200B6808689B0702F0B5
:10334000404202D5002A00F0A181800500F1F681FB
:10335000FEE100BF40F60040C4F20240D0F8E400B5
:10336000400640F11B8199E040F60041C4F2024161
:10337000D1F8E00000F00702042A00F21B8148F2B5
:103380000000C0F2BB00DFE812F009017100050087
:103390005B00770101A8FFF7BDFB019804B080BD79
:1033A00040F60040C4F20240D0F8E810D0F8F02017
:1033B00001F0C001920702D5002900F0E480D0F8A6
:1033C000F020120140F12281402940F01F814FF48A
:1033D000FA4004B080BD00BF40F60041C4F2024193
:1033E000D1F8E800D1F8F02000F00800920702D5EB
:1033F000002800F0C880D1F8F010002818BF4FF462
:10340000FA4001F00061AFE140F60041C4F2024130
:10341000D1F8E40000F04070B0F1807F00F09A80B5
:10342000002800F091800A68B0F1007F4FF00000A2
:1034300006D112F0020203D00868C0F3C10050E1C7
:1034400004B080BD40F60040C4F20240D0F8DC1069
:10345000C1F30231052900F2AD80DFE811F07500FB
:1034600007007B00CF00C500370100BF01A8FFF7B0
:1034700077FA019804B080BD40F60040C4F20240E3
:10348000D0F8E41001F00301DFE801F0028808D071
:1034900004B0BDE8804000F0C1BF00BF01A8FFF745
:1034A0005FFA039804B080BD40F60040C4F20240C9
:1034B000D0F8E41001F44021B1F5802F4AD0002962
:1034C00042D002680068B1F5002F03D112F0020269
:1034D00040F0DC8010F400701CBF40F60010C0F219
:1034E0003D00B1F5402F18BF002004B080BD00BFE3
:1034F00040F60040C4F20240D0F8E01011F46061E0
:103500002ED00268B1F5007F02D112F000624BD1DB
:103510000268B1F5806F40F0BD8012F0005200F0FB
:10352000B98001A8FFF7F6FA029804B080BD00BF89
:1035300040F60040C4F20240D0F8E41001F44031FB
:10354000B1F5803F06D0C9BB04B0BDE8804000F0B3
:103550007DBF00BF01A8FFF7DDFA039804B080BD6E
:1035600004B0BDE8804000F095BF00BF0268920142
:1035700001D5102912D0D0F8F020920740F1CC806C
:10358000202940F0C9804FF4004004B080BD00BF46
:10359000B0F5007F08D0B0F5807F0BD101A8FFF710
:1035A00005F9029804B080BD01A8FFF7D9F9029887
:1035B00004B080BD002004B080BD00BF0268006878
:1035C000B1F5003F02D112F002025FD110F4007099
:1035D0001CBF40F60010C0F23D00B1F5403F18BFDF
:1035E000002004B080BD00BFD0F8F0004FF4FA41D5
:1035F000000101EAE07004B080BD00BFD0F8F00027
:103600004FF4004101EA803004B080BD0068802999
:1036100000F400724FF0000008BF48F2120085E08D
:1036200004B0BDE8804000F07DBF00BFD0F8E810D6
:10363000036802689B0701F040415BD500294ED02A
:1036400058E000BF03680268B1F1407F02D113F077
:10365000020344D1B1F1806F02D112F4007270D133
:10366000D0F8F000B1F1A06F00F002024FF00000BE
:1036700008BF900304B080BDD1F8E8200B6808684B
:103680009B0702F0404257D5002A55D1C0F3C10034
:1036900027E000BF03680268B1F5C06F02D113F0E4
:1036A00002031CD1B1F5006F02D112F4007248D1AF
:1036B000006810F400301CBF47F64000C0F27D10D7
:1036C000B1F5206F18BF002004B080BDD0F8E8101D
:1036D000036802689B0701F040410BD551B9C2F362
:1036E000C10049F20001C0F2D03121FA00F004B06B
:1036F00080BD00BF920502D5B1F1804F21D0006896
:10370000B1F1004F00F400324FF0000004BF47F663
:103710004000C0F27D1009E0D0F8F000302900F040
:1037200000624FF0000008BF4FF4FA40002A08BFC3
:10373000104604B080BD00BF800509D5B2F1804FAE
:1037400006D140F60010C0F23D0004B080BD00BFBD
:103750000868B2F1004F00F400314FF0000004BFE0
:1037600047F64000C0F27D10002908BF084604B0AB
:1037700080BD00002DE9F0470446006840F6284867
:10378000C101C4F2024807D5D8F8C010A26D21F0DB
:1037900040411143C8F8C010C00712D0E06D0528A1
:1037A00000F25482DFE810F00600B404EA010600DB
:1037B00006000600D8F8B01021F007010843C8F849
:1037C000B00000252078800702D428461BE000BF07
:1037D000206E4FEAF001052900F23A822846DFE820
:1037E00011F00700A304D70107000700070000BF7E
:1037F000064648B9D8F8B000216E20F038000843DA
:10380000C8F8B00000202E462178490719D5616E0E
:103810004FEAB111052900F22382DFE811F0070019
:103820008B04BF0107000700070000BF054648B929
:10383000D8F8B000616E20F4E0700843C8F8B0001A
:10384000002035462178090719D5A16E4FEA71216C
:10385000052900F20D82DFE811F007007304A701CB
:1038600007000700070000BF064648B9D8F8B000B7
:10387000A16E20F460600843C8F8B00000202E4616
:103880002178C90619D5E16E4FEA3131052900F2D8
:10389000F781DFE811F007005B048F0107000700E4
:1038A000070000BF054648B9D8F8B000E16E20F423
:1038B000E0400843C8F8B00000203546217889066A
:1038C00019D5216F4FEAF131052900F2E181DFE8D6
:1038D00011F007004304770107000700070000BF4D
:1038E000064648B9D8F8B000216F20F4603008438C
:1038F000C8F8B00000202E466178C90619D5616F5E
:103900004FEA3161052900F2CB81DFE811F00700B1
:103910002B045F0107000700070000BF054648B9F8
:10392000D8F8B800616F20F0E0600843C8F8B8002C
:1039300000203546617889061AD5A16F6FF0010223
:1039400002EB3142022A08D34FEA314129B1012961
:103950002ED104F1300002F053FB064648B9D8F8E6
:10396000BC00A16F20F440300843C8F8BC00002020
:103970002E466178490620D5E16F6FF0010202EB17
:10398000B142022A08D34FEAB14129B1012937D106
:1039900004F1300002F034FB054678B9D8F8BC00D9
:1039A000E16F20F440200843C8F8BC00002004E088
:1039B0000120012661784906DED435466178090682
:1039C00023D5D4F880106FF0010202EB3152022AA5
:1039D00008D34FEA315129B1012939D104F130001E
:1039E00002F00EFB064688B9D8F8BC00D4F8801067
:1039F00020F440100843C8F8BC00002005E000BFD8
:103A00000120012561780906DBD42E46A178C9077B
:103A100023D0D4F88410002918BFB1F1007F0DD154
:103A20000746D8B9D8F8BC00D4F8841020F040700C
:103A30000843C8F8BC0000200FE000BFB1F1807F50
:103A400030D104F1300002F0DBFA074630B9E9E783
:103A500001200126A178C907DBD137466179C90663
:103A600025D5D4F88810002918BFB1F1006F0DD109
:103A70000546E8B9D8F8BC00D4F8881020F04060BA
:103A80000843C8F8BC00002011E000BFB1F1806F0E
:103A900040F0708004F1300002F0B2FA054638B907
:103AA000E8E700BF012001276179C906D9D43D4666
:103AB000D4E9001240F61C47C4F20247120508D5AB
:103AC0003A6822F400423A60D4F8C8203B681A43AE
:103AD0003A6089031AD5D4F88C104FEA31210529B0
:103AE00000F2E680DFE811F00600440378000600EB
:103AF00006000600064650B9D8F8B400D4F88C1079
:103B000020F4E0600843C8F8B40000202E46A178F5
:103B100049071BD5D4F890104FEA3131052900F23E
:103B2000CF80DFE811F007002B035F0007000700DC
:103B3000070000BF054650B9D8F8B400D4F890107B
:103B400020F4E0400843C8F8B40000203546A178CE
:103B500089065ED5D4F8A010052900F2B9800229A3
:103B600046D0002802464AD0D4E900139B0555D41C
:103B7000B4E000BF012001259AE700BF04F1300046
:103B800002F03EFA054600287FF41CAEC8E200BFF2
:103B900004F1300002F034FA2AE600BF04F13000EC
:103BA00002F02EFA42E600BF04F1300002F028FADB
:103BB0005AE600BF04F1300002F022FA72E600BFBC
:103BC00004F1300002F01CFA8AE600BF04F1300074
:103BD00002F016FAA2E600BF04F1300002F010FA7B
:103BE00088E700BF04F1300002F00AFAA2E700BF44
:103BF00004F1080002F08EF900280246B4D1D8F88A
:103C0000C000D4F8A01020F007000843C8F8C00096
:103C100000202A46D4E900139B055FD5D4F8A430D0
:103C200043F00806082E0BD1814660B9D8F8C000D1
:103C300020F008001843C8F8C00000204EE000BF84
:103C400001204FF0010989014BD4A6E00125B9E517
:103C500001200126217849073FF5D9ADF1E500BFE4
:103C600001200125217809073FF5EFAD07E600BFE8
:103C7000012001262178C9063FF505AE1DE600BFEB
:103C800001200125217889063FF51BAE33E600BFF0
:103C9000012001266178C9063FF531AE49E600BF33
:103CA00001200125617889063FF547AE60E600BF37
:103CB00001200126A17849073FF52CAF46E700BF58
:103CC00001200125A17889063FF544AFA1E700BF97
:103CD00001200122D4E900139B059FD4914689015C
:103CE0005BD54FF60846CFF6FF768246B85940F0CE
:103CF0000100B851FEF7DEFA054600BFB859C0070B
:103D000008D1FEF7D7FA401B0228F7D90320032178
:103D100044E000BF5046BAF1000F51463ED1D8F8FA
:103D2000C80010F4407018D0D4F8BC10884211D0EC
:103D3000D8F8C800D8F8C81020F4407041F4803199
:103D4000C8F8C810D8F8C81021F48031C8F8C810D5
:103D5000C8F8C800C00740F01D82D4F8BC0039681C
:103D60004FF6CF7300F4407221F47C51C0F2FF0390
:103D700003EA1013B2F5407F08BF19433960D8F841
:103D8000C8106FF31F3021F44071C8F8C810D8F87C
:103D9000C8100843C8F8C8000020494622685301EB
:103DA0001CD5D4F898306FF0010707EB3317022FBA
:103DB0000AD34FEA33173FB1012F17D1D8F800705B
:103DC00047F40037C8F80070054640B9D8F8C0007D
:103DD00020F030001843C8F8C00000200D46510202
:103DE00008D42E46E178090714D451E001200125BA
:103DF0005102F6D5D4F89C10402921D091BBD8F8B7
:103E0000001041F40031C8F800100646F8B1E1781E
:103E100009073DD5D4F8AC10042900F25F81DFE832
:103E200011F005003F0127002B002B00D8F80010EF
:103E300041F40031C8F80010054650BB1EE000BF39
:103E400004F1080002F066F800280646DFD1D8F831
:103E5000BC00D4F89C1020F040000843C8F8BC0017
:103E60000020BEE701200126E1780907D2D40FE047
:103E700004F1300002F0C4F8054650B9D8F8B80093
:103E8000D4F8AC1020F007000843C8F8B8000020B0
:103E90003546E178C90627D5D4F8B0104FEAF101CC
:103EA000042900F21F81DFE811F0050005010F0071
:103EB00013001300D8F8001041F40031C8F80010C6
:103EC000064690B906E000BF04F1300002F098F811
:103ED000064650B9D8F8B800D4F8B01020F0380031
:103EE0000843C8F8B80000202E46E178890627D597
:103EF000D4F8B4104FEAB111042900F2F780DFE8DA
:103F000011F00500E3000F0013001300D8F80010B3
:103F100041F40031C8F80010054690B906E000BF32
:103F200004F1300002F06CF8054650B9D8F8B8003A
:103F3000D4F8B41020F4E0700843C8F8B8000020AA
:103F40003546E17849061BD5D4F8B8104FEA7121FF
:103F5000052900F2D580DFE811F007001701CD0038
:103F600007000700070000BF064650B9D8F8B800A0
:103F7000D4F8B81020F460600843C8F8B8000020F6
:103F80002E46217989071BD5D4F8A810032900F201
:103F90008380DFE801F00903770900BFD8F800103B
:103FA00041F40031C8F80010054650B9D8F8BC00FB
:103FB000D4F8A81020F003000843C8F8BC00002083
:103FC00035462179490721D5D4F8941059B1B1F576
:103FD000007F0BD0B1F5807F3CD1D8F8001041F4C0
:103FE0000031C8F80010064688B905E004F1080061
:103FF00001F090FF064650B9D8F8C000D4F89410EC
:1040000020F440700843C8F8C00000202E462179F3
:10401000C90624D5D4F8C410302909D0202909D0E4
:1040200010292DD1D8F8001041F40031C8F8001043
:10403000B0B904E004F1300001F0E2FF80B9D8F833
:10404000BC00D4F8C41020F030000843C8F8BC000D
:1040500005E000BF012001262179C906DAD43046E7
:104060002179090758BFBDE8F087D8F8C010D4F807
:10407000C02021F0C0011143C8F8C010BDE8F0878E
:104080000120EDE704F1080001F044FF0028054697
:104090007FF497AF8AE700BF0120012591E700BFB9
:1040A00004F1080001F036FF002805467FF4F1AE68
:1040B000E4E600BF04F1080001F02CFF00280646EA
:1040C0007FF413AF06E700BF04F1080001F022FF00
:1040D000002805467FF435AF28E700BF0120012501
:1040E000D7E600BF01200126FFE600BF0120012521
:1040F00027E700BF04F1300001F082FF34E700BF82
:1041000001200126217989073FF53EAF58E700BF1E
:1041100004F1080001F0FEFE054600287FF452ABD2
:10412000E06DFFF747BB00BF04F1080001F0F2FEAD
:10413000FFF75EBB04F1080001F0ECFEFFF776BB71
:1041400004F1080001F0E6FEFFF78EBB04F1080061
:1041500001F0E0FEFFF7A6BB04F1080001F0DAFE73
:10416000FFF7BEBB04F1080001F0D4FEFFF7D6BB99
:1041700004F1080001F0CEFEFFF7BCBC04F108001A
:1041800001F0C8FED6E400BF04F1080001F0C2FE51
:10419000EAE600BFFEF78EF8054641F2883600BF1A
:1041A000D8F8C80080073FF5D8ADFEF783F8411B6B
:1041B0000320B1424FF00301F2D9EFE52DE9F043BE
:1041C00081B0002800F0D08042F20008C4F202085A
:1041D0000446D8F800000D4600F00F0088420DD2CA
:1041E000D8F8000020F00F002843C8F80000D8F8E5
:1041F000000000F00F00A84240F0B680206840F6B2
:104200002047C106C4F202470CD561693A687023A1
:1042100003EA1222914205D93A6822F4E04242EAC6
:104220000121396001070CD521693A68702303EA3E
:104230001212914205D93A6822F4E06242EA011171
:10424000396041070AD5E1683A6802F0700291428C
:1042500004D93A6822F070021143396081070AD507
:10426000A1683A6802F00F02914204D93A6822F03C
:104270000F0211433960C00768D1206881070AD551
:10428000A1683A6802F00F02914204D23A6822F023
:104290000F0211433960D8F8001001F00F01A94254
:1042A0000CD9D8F8001021F00F012943C8F80010EC
:1042B000D8F8001001F00F01A94255D141070AD5E5
:1042C000E1683A6802F07002914204D23A6822F042
:1042D00070021143396001070CD521693A687023D7
:1042E00003EA1212914205D23A6822F4E06242EAED
:1042F00001113960C0060CD560693968702202EA84
:104300001121884205D2396821F4E04141EA0020B8
:10431000386000F007F939684AF6501201F00F01D1
:10432000C0F60002525C40F20401C2F200010968CA
:1043300040F2240320FA02F2C2F2000308461A6097
:1043400001B0BDE8F043FDF7EFBF00BF606857F86C
:10435000201C01280CD0022804D003285AD189013E
:1043600002D507E0890305D4012001B0BDE8F08340
:104370008905F9D557F8041C21F00301084347F8D3
:10438000040CFDF797FF61680646032941F288395E
:1043900039D0022929D0012910D100BF57F8040CC7
:1043A00000F0180008283FF468AFFDF783FF801B7A
:1043B00048454FF00300F1D90DE000BF57F8040C59
:1043C00010F0180F3FF459AFFDF774FF801B4845FC
:1043D0004FF00300F2D901B0BDE8F083FDF76AFFAA
:1043E000801B48454FF00300F5D857F8040C00F047
:1043F00018001028F2D140E7FDF75CFF801B48450C
:104400004FF00300E7D857F8040C00F01800182804
:10441000F2D132E78907A7D5ACE7000080B500F0FC
:1044200081F840F62041C4F2024109684AF6501270
:1044300001F00F01C0F60002515C01F01F01C840FD
:1044400040F22401C2F20001086080BD80B500F096
:1044500069F840F62041C4F202410A684AF6501356
:1044600002F00F02C0F600039A5C02F01F02D04077
:1044700040F22402C2F20002106009684AF660129B
:10448000C1F30211C0F60002515C01F01F01C840E7
:1044900080BD000080B500F045F840F62041C4F230
:1044A00002410A684AF6501302F00F02C0F60003F8
:1044B0009A5C02F01F02D04040F22402C2F20002D5
:1044C000106009684AF66012C1F30221C0F60002CA
:1044D000515C01F01F01C84080BD000080B500F0B4
:1044E00021F840F62041C4F202410A684AF650130E
:1044F00002F00F02C0F600039A5C02F01F02D040E7
:1045000040F22402C2F20002106009684AF660120A
:10451000C1F30231C0F60002515C01F01F01C84036
:1045200080BD000080B540F60041C4F20241C86978
:1045300000F01800082802BF40F60010C0F23D004D
:1045400080BDC86910F0180F34D0C86900F0180099
:10455000102802BF47F64000C0F27D1080BDC86938
:1045600000F01800182849F20000C0F2D03066D1DF
:10457000D1F828E08A6AC2F3052C8A6A8B6BBCF1F9
:10458000000F04BF002080BDDB08D20603EAE27200
:104590006FF35F3200EE102A0EF00302B8EE400A0D
:1045A000032A15D0012A17D10A68920618D49FED64
:1045B000251A1DE00868800649F20000C0F2D030DC
:1045C00058BF80BD0968C1F3C101C84080BD00BFAC
:1045D0009FED1B1A0CE000BF9FED1B1A08E000BF07
:1045E0000A68C2F3C102D04001EE100AB8EE411AC7
:1045F00002EE10CA486BB8EE422A6FF35F2081EEDC
:10460000021A02EE100A9FED113AB8EE422A20EE8D
:10461000030A486B30EE020AB7EE002AC0F34620C8
:1046200030EE020A013021EE000A01EE100AB8EE67
:10463000411A80EE010ABCEEC00A10EE100A80BDDD
:1046400020BCBE4B0024744C0024744A0000003986
:10465000002804BF012070472DE9F04381B040F6E7
:10466000004740F6F0490446C4F20247C4F202494A
:10467000F86959F8C81C227800F01808D00601F033
:1046800003062AD5B8F1080F1CD0B8F1180F08BFDF
:10469000022E17D0E1693868002900F06D8140F4DE
:1046A00080703860FDF706FE054600BF386880055B
:1046B0000CD4FDF7FFFD401B02284FF00300F5D995
:1046C00058E200BFE069002800F0E480B869216A80
:1046D00020F47C1040EA0140B8612078C00719D06E
:1046E000B8F1100F12D0B8F1180F08BF032E0DD07B
:1046F00061683868B1F5A02F60DA002900F0B08158
:10470000B1F5803F00F0CE819EE100BF60680028D7
:1047100000F0C0802078800777D5B8F1000F21D055
:10472000E068B8F1180F08BF012E55D0396800288D
:1047300000F06681206921F018010843386038686C
:1047400040F001003860FDF7B5FD05463868800788
:1047500054D4FDF7AFFD401B02284FF00300F5D9FC
:1047600008E200BFE068002800F094803968206902
:1047700001F01801814231D0396821F01801084355
:104780003860FFF7CFFE396A4AF6501201F00F0188
:10479000C0F60002515C40F2240201F01F0120FA31
:1047A00001F140F20400C2F200000068C2F200020F
:1047B0001160FDF7B9FD00286CD10FE000F06A81AF
:1047C000B1F5A81F40F0408140F48020386038687F
:1047D00040F4801064E100BF00285BD0FDF76AFD63
:1047E000054600BF3868800708D4FDF763FD401B0D
:1047F0000228F7D9032001B0BDE8F0833869616968
:1048000020F4FE0040EA014038612078000745D4DA
:10481000207840075CD42078800600F17F80A56A6C
:10482000A5B3B8F1180F40F0C98059F8C81C59F861
:10483000BC0C012D2ED0E26A01F00303934229D172
:10484000C1F30521226B914224D1626B01466FF3C3
:104850005F21013A91421DD1A16BC0F3462201397B
:104860008A4217D1E16BC0F3064201398A4211D165
:10487000216CC0F30660013988420BD159F8B80C9D
:10488000E16CC0F3CC00884240F0E881002001B028
:10489000BDE8F083012001B0BDE8F083A169D9F83B
:1048A0000000002952D040F08060C9F80000FDF7F8
:1048B00001FD0546D9F800000001A9D4FDF7FAFC76
:1048C000401B0228F6D9032001B0BDE8F08300BFE9
:1048D0004FF62446CFF6FF76B859C00712D1B85923
:1048E00040F00100B851FDF7E5FC0546B859C00796
:1048F00008D1FDF7DFFC401B02284FF00300F5D97B
:1049000038E100BFA168D9F80000042946DC00297D
:1049100000F0EA80012900F01781D5E0616A38686B
:10492000002900F07F8040F480503860FDF7C2FC21
:10493000054600BF386880043FF571AFFDF7BAFC4B
:10494000401B02284FF00300F4D913E120F08060EF
:10495000C9F80000FDF7AEFC054600BFD9F800001D
:1049600000017FF555AFFDF7A5FC401B02284FF075
:104970000300F3D9FEE000BF20F480703860FDF73B
:1049800099FC0546386880057FF5A7AEFDF792FCD7
:10499000401B02284FF00300F4D9EBE0052900F09A
:1049A000C780852940F0908040F00400C9F80000DD
:1049B000D9F8000040F08000C2E000BF386820F065
:1049C00080703860FDF776FC022D05460CD100BFE3
:1049D0003868800140F1D280FDF76CFC401B022852
:1049E0004FF00300F4D9C5E03868800140F1288118
:1049F000FDF760FC401B02284FF00300F4D9B9E03A
:104A000021F001003860FDF755FC05463868800745
:104A10007FF5FBAEFDF74EFC401B02284FF0030074
:104A2000F4D9A7E020F480503860FDF743FC054638
:104A3000386880047FF5F3AEFDF73CFC401B02288C
:104A40004FF00300F4D995E020F4803038603868E6
:104A500020F480203860386820F4801024E000BF03
:104A600020F480303860386820F48010386038686E
:104A700020F480203860FDF71DFC0546386880036F
:104A80007FF548AEFDF716FC401B64284FF003008D
:104A9000F4D96FE040F480203860386820F480104A
:104AA0003860386840F480303860FDF703FC054614
:104AB000386880033FF52EAEFDF7FCFB401B6428F1
:104AC0004FF00300F4D955E020F00100C9F80000D0
:104AD000D9F8000020F00400C9F80000D9F800005F
:104AE00020F0800032E000BF20F00100C9F8000093
:104AF000D9F8000020F08000C9F80000D9F80000C3
:104B000020F00400C9F80000FDF7D4FB054641F28F
:104B1000883600BFD9F8000080077FF57CAEFDF72E
:104B2000C9FB401BB0424FF00300F3D922E000BFA5
:104B300040F00400C9F80000D9F8000020F080001F
:104B4000C9F80000D9F8000040F00100C9F80000E1
:104B5000FDF7B0FB054641F2883600BFD9F80000EA
:104B600080073FF558AEFDF7A5FB401BB0424FF064
:104B70000300F3D901B0BDE8F08300BF59F8C80CB9
:104B800043F6037104F12C0388430ECB084340EA3B
:104B90000220A16B49F8C80C4FF47E4202EB412180
:104BA000E26B581E4FF4FE0389B203EB02426FF32F
:104BB0005F20084402F4FE01226C4FF0FE4303EB39
:104BC0000262084402F0FE41084449F8BC0C59F85E
:104BD000C80C20F0100049F8C80CE06CC00049F87F
:104BE000B80C59F8C80C40F0100049F8C80C59F836
:104BF000C80C616C20F00C00084349F8C80C59F847
:104C0000C80CA16C20F02000084349F8C80C59F8E2
:104C1000C80C40F4803049F8C80C386840F0807007
:104C20003860FDF747FB0446386880013FF52EAE3B
:104C3000FDF740FB001B02284FF00300F4D999E771
:104C400059F8C80C4FF6FC71CFF6F871084049F8D6
:104C5000C80C002001B0BDE8F08300BF59F8C80CB3
:104C600020F0100049F8C80CFDF724FB0546FDF7BD
:104C700021FBA842FBD0E06CC00049F8B80C59F801
:104C8000C80C40F0100049F8C80C002001B0BDE885
:104C9000F0830000002804BF012070472DE9F04395
:104CA00081B0016844F6004441F08053C5F201042C
:104CB0000022A342826203D1C2680F2A01D949E0CF
:104CC000C268C36B012404EB53130832D20803FB00
:104CD00002F244F60043C4F2010399420AD043F6BB
:104CE0000043C5F2000303F58833994204D1082A32
:104CF00030D801E0082A2DD842F6FF73C4F2010330
:104D0000994213DD43F20003C4F2010399421FD01C
:104D100043F60003C5F20003994219D043F20003A1
:104D2000C5F20103994213D00CE000BF43F6000323
:104D3000C4F2000399420BD043F60043C4F20003CF
:104D4000994205D043F60043C5F20003994205D1CC
:104D5000102A03D9012001B0BDE8F08390F8891032
:104D600031B9002180F88810044600F085F820460B
:104D7000022180F88910D0E90019D0F818800C6859
:104D8000B8F1806F24F001040C608C6804F4F81C06
:104D900010D1B9F1000F05D0B9F5800F0AD1846B9D
:104DA00074B903E0846BB4F1805F06D10C6844F4FD
:104DB00080540C605FEA492402D44FF0010E0FE0EA
:104DC000C468072C0AD3D1F800E0066D2EF4807574
:104DD0002E430E604FF0000E07E000BF4FF0000EB4
:104DE0000C6824F480740C60C468C669876AC36B5D
:104DF00046EA0C0637433B4323438568D0E9046207
:104E00008B60D0E90D34476ABEF1000F43EA070317
:104E100043EA0403D0E9124743EA0603066A42EA7A
:104E2000030242EA060242EA070242EA0502836DF1
:104E300042EA0402C76D42EA0302036E42EA070235
:104E400042EA030242EA080242EA0902CA600A6D23
:104E500022F001020A6505D1CA68436D22F00042C2
:104E60001A43CA600021C0F88C10012180F8891013
:104E7000002001B0BDE8F083B0B5BCB0044602A884
:104E800000250830C8213B95CDE93955CDE9375586
:104E9000FBF766FB206843F20001C4F2010188427F
:104EA00002D03CB0B0BD00BF4FF00060029002A83D
:104EB0000395FEF75FFC002818BFFBF743FE40F6A2
:104EC0008C40C4F20240816941F480518161816962
:104ED00001F4805101910199016841F001010160E3
:104EE000006837A900F0010001900198E020379098
:104EF000022038900020CDE9390005203B900020A9
:104F0000C4F20220FDF70CF93CB0B0BD2DE9F0472A
:104F1000D0F800901D46174604460E46FDF7CAF924
:104F200094F8891001290DD18046002E4FF0010020
:104F300018BF002F02D1BDE8F08700BF94F88800A9
:104F4000012803D10220BDE8F08700BF0121032022
:104F5000002284F8881084F88900C4F88C206666E2
:104F6000A4F86870A4F86A70E266A4F87020A4F847
:104F70007220A068A267B0F5C02F2068E26705D153
:104F8000016841F40061016004E000BFC26861F3A0
:104F90005242C26041684FF6FF729143394441600A
:104FA000016841F0010101606168B1F5800F03D132
:104FB000016841F400710160E168102916D343F2E1
:104FC000FF71C5F2000188425CDC43F60001C4F2C7
:104FD0000001884268D043F60041C4F200018842D3
:104FE00062D043F20001C4F201015BE0072900F244
:104FF000A780B4F86A00002800F0D4804FF6FE7055
:105000006E1CA0F1020A471C10E000BF616E51F84F
:10501000042B026250466166B4F86A100844A4F892
:105020006A00B4F86A00002800F0BC80206841697A
:10503000890709D4FDF73EF9002EF2D0A0EB080055
:10504000A842EED350E000BFB4F86A10042902D39E
:10505000E16B4129DAD2B4F86A1001290AD9E26B6E
:10506000616E42B131F8020BA9F820004FF6FE70D4
:10507000D1E700BF616E097880F82010606E411C96
:105080003846C8E743F60001C5F2000188420BD05C
:1050900043F20001C5F20101884205D043F6004108
:1050A000C5F2000188424BD1B4F86A00002879D0DB
:1050B000681C0FD130E000BF616E51F8042B026212
:1050C0006166B4F86A000138A4F86A00B4F86A00AE
:1050D000002867D0206841698907EDD4FDF7EAF818
:1050E000A0EB0800A842F1D3204600F0FFFFD4F85F
:1050F0008C0040F48070C4F88C00012084F8890092
:10510000002084F888000320BDE8F087FDF7D2F87E
:10511000B4F86A00002845D0206841698907F5D5B0
:10512000616E51F8042B02626166B4F86A000138BE
:10513000A4F86A00B4F86A000028EDD132E000BF9C
:10514000B4F86A0070B34FF6FE706E1C471C0EE098
:10515000606E30F8021BA9F8201039466066B4F87A
:105160006A000844A4F86A00B4F86A00D0B1216863
:105170004869800708D4FDF79DF8002EF4D0A0EB15
:105180000800A842F0D3AFE7B4F86A000128DFD9DD
:10519000E26B606E002ADCD050F8042B0A624FF6F6
:1051A000FE71DBE7681C13D020684069000713D448
:1051B000FDF780F8A0EB0800A842F5D3D4F88C00E6
:1051C00040F02000C4F88C0006E000BFFDF772F844
:1051D000206840690007F9D5204600F087FF0120CC
:1051E00084F88900002084F88800D4F88C00002816
:1051F00018BF0120BDE8F0872DE9F04F81B0D0F84D
:105200000090C66B9A46174604460D46FDF752F8C5
:1052100094F8891001290FD180464FF0010025B183
:10522000002F18BFBAF1000F02D101B0BDE8F08F16
:1052300094F88800012803D1022001B0BDE8F08F66
:10524000012084F888000520002184F88900C4F832
:105250008C10E766A4F872A0A4F870A06566A4F8A4
:105260006AA02068A4F868A0A167E167C168102758
:1052700021F4C021C16043F2FF71C5F200018842F0
:1052800010DC43F60002C4F2000290421DD043F647
:105290000042C4F20002904217D043F20002C4F26E
:1052A00001020FE043F60002C5F2000290420CD06A
:1052B00043F60042C5F20002904206D043F20002DB
:1052C000C5F20102904218BF082742684FF6FF73EB
:1052D0009A4352444260026842F0010202606268EE
:1052E000B2F5800F4FF0010203D1036843F400735D
:1052F0000360E36802EB5612102B17D3884200F3C9
:105300009D8043F60001C4F200010A9B884200F030
:10531000A88043F60041C4F20001884200F0A18059
:1053200043F20001C4F2010199E000BF072B0A9B80
:1053300000F200814FF6FF711FFA82F9012003F19C
:10534000010BA1F1030C012356460FE04FF0000AB8
:10535000B3B21FFA8AF0002B18BF012346EA0A01F4
:10536000002818BF0120090400F0568121681FFAA7
:105370008AF2DB074D6918BF15F0020312D0B3B2F1
:105380003B4493420ED9636E1B7881F82030636EE4
:10539000216801336366B4F86A30013BA4F86A30CF
:1053A000B4F86A604B69C007D0D04869C00724D1FF
:1053B0004A451DD213F400401AD091F83000E16E36
:1053C0000870E06E2168421CE26691F8301041706E
:1053D000E06E2168421CE26691F830104170E06E88
:1053E0002168421CE26691F83010417060460AE084
:1053F000032A13D813F4C04010D091F83000E16EA6
:1054000008704FF6FF70E16E0131E166B4F872107A
:105410000844A4F87200B4F872A099E76546FCF756
:1054200049FFBBF1000F07D00A99A0EB08008842A2
:10543000AC46FFF48DAF69E0AC4689E743F6000166
:10544000C5F200010A9B88420BD043F20001C5F26D
:105450000101884205D043F60041C5F200018842AF
:1054600068D11FFA82FBBD08012003F10109012365
:1054700056460FE04FF0000AB3B21FFA8AF0002B35
:1054800018BF012346EA0A01002818BF01200904B9
:1054900000F0C28021681FFA8AF2DB074F6918BF4B
:1054A00017F002030FD0B3B22B4493420BD9636EB3
:1054B00053F8047B0F626366B4F86A30013BA4F8CA
:1054C0006A30B4F86A604B69C007D3D04869C00736
:1054D00004D15A4510D213F400400DD0096BE06E90
:1054E00001600430E066B4F872000138A4F872007C
:1054F000B4F872A0C0E700BFFCF7DCFEB9F1000F02
:10550000BAD00A99A0EB08008842B5D3204600F033
:10551000EDFDD4F88C0040F48070C4F88C000120BC
:1055200084F88900002084F88800032001B0BDE8D9
:10553000F08F00BF4FF6FF711FFA82FB7F0801203A
:105540005A1CA1F1010C0123564600920FE000BF46
:105550004FF0000AB3B21FFA8AF0002B18BF0123E4
:1055600046EA0A01002818BF0120090454D0226825
:105570001FFA8AF1DB07556918BF15F0020310D036
:10558000B3B23B448B420CD9636E33F8026BA9F87B
:1055900020606366B4F86A30013BA4F86A30B4F85E
:1055A0006A605369C007D3D05069C00716D1594506
:1055B0000ED213F400400BD0B9F83010E06E20F892
:1055C000041BB9F8301020F8021C61460DE000BF42
:1055D000012913D113F4005010D000BFB9F83010D6
:1055E000E06E20F8021B4FF6FF71E066B4F872001F
:1055F0000844A4F87200B4F872A0ABE76546FCF763
:1056000059FE009931B10A99A0EB08008842AC46D6
:10561000A0D37BE7AC469DE70A9D681C14D000BF71
:1056200020684069000713D4FCF744FEA0EB080093
:10563000A842F5D3D4F88C0040F02000C4F88C00C8
:1056400006E000BFFCF736FE206840690007F9D588
:10565000204600F04BFD012084F88900002084F8EA
:105660008800D4F88C00002818BF012001B0BDE8E4
:10567000F08F0000042888BF7047DFE800F0031BAC
:1056800013352D004EF21000CEF20000016821F01B
:105690000401016040F6E440C4F20240016821F0D8
:1056A0000C0120E04EF21000CEF200000168022250
:1056B00006E000BF4EF21000CEF2000001680122A9
:1056C00021F00401016040F6E440C4F202400168A8
:1056D00062F3830107E000BF4EF21000CEF200003B
:1056E000016841F00401016070470000411E002084
:1056F000B0EB116F1CBF012070474EF21002CEF2CA
:10570000000251609060116841F003011160704720
:105710004EF21000CEF200000068400744BF0420A3
:10572000704740F6E440C4F20240006800F00C010B
:10573000081FB0FA80F04009082908BF022070470E
:1057400090F83C20012A4FF0020200F0C08010B512
:1057500080F83D20026842F6FF33D2F804E0D2F828
:1057600008C0C5F201039A420CDC42F60043C4F2C1
:1057700001039A4212D043F20043C4F201039A4259
:105780000CD010E043F20043C5F201039A4205D069
:1057900042F60043C5F201039A4204D14C682EF44C
:1057A000700344EA030E4FF68F73CFF6FF530C6875
:1057B00003EA0E032343B2F1A04F536014DA41F21F
:1057C000FF73C4F200039A4222DC40F2FF73C4F27A
:1057D00000039A423EDCB2F1804F6BD040F20043AE
:1057E000C4F2000364E000BF41F2FF73C5F200039E
:1057F0009A421FDC40F2FF73C5F200039A4235DC87
:10580000B2F1A04F56D040F20043C5F200034FE082
:1058100043F2FF33C4F201039A4233DC41F6000342
:10582000C4F200039A4245D042F60043C4F2010399
:105830003EE000BF43F2FF33C5F201039A422DDC84
:1058400041F60003C5F200039A4233D042F600430A
:105850002CE000BF40F60003C4F200039A4229D0B6
:1058600040F60043C4F2000322E000BF40F600030C
:10587000C5F200039A421DD040F60043C5F2000372
:1058800016E000BF43F20043C4F201039A4211D074
:1058900044F20003C4F201030AE000BF44F2000333
:1058A000C5F201039A4205D043F20043C5F2010359
:1058B0009A4204D189682CF0800319439160012138
:1058C000002280F83D1080F83C20BDE810401046D2
:1058D00070470000002804BF0120704710B504463F
:1058E00090F83D0028B9002084F83C00204600F0E4
:1058F00023F8022084F83D002068211D00F022FDDD
:10590000012084F8480084F83E0084F83F0084F8C1
:10591000400084F8410084F8420084F8430084F891
:10592000440084F8450084F8460084F8470084F871
:105930003D00002010BD0000006841F20001C4F2EB
:105940000001884218BF704781B040F69C40C4F205
:105950000240016841F010010160006800F0100091
:105960000090009801B0704790F83D1001291BD1BC
:10597000022180F83D100168B1F1A04F16DA41F222
:10598000FF70C4F20000814224DC40F2FF70C4F2D8
:105990000000814240DCB1F1804F6DD040F2004008
:1059A000C4F2000066E000BF0120704741F2FF70C2
:1059B000C5F2000081421FDC40F2FF70C5F200001A
:1059C000814235DCB1F1A04F56D040F20040C5F223
:1059D00000004FE043F2FF30C4F20100814233DCAB
:1059E00041F60000C4F20000814245D042F600407A
:1059F000C4F201003EE000BF43F2FF30C5F20100F7
:105A000081422DDC41F60000C5F20000814233D016
:105A100042F600402CE000BF40F60000C4F2000057
:105A2000814229D040F60040C4F2000022E000BFCD
:105A300040F60000C5F2000081421DD040F6004053
:105A4000C5F2000016E000BF43F20040C4F20100BE
:105A5000814211D044F20000C4F201000AE000BF0C
:105A600044F20000C5F20100814205D043F200403B
:105A7000C5F2010081420DD188680722C0F20102FF
:105A80000240062A4FF0000018BFB2F5803F01D156
:105A9000704700BF086840F00100086000207047B0
:105AA00010B5D8B10446D0F8880028B9002084F891
:105AB0008400204600F026F82420C4F888002068DE
:105AC000A16A0268002922F0010202601CBF204680
:105AD00000F056FD204600F07DFE08B1012010BD0B
